:04082900023B00008E
:100A200012000E8E3B8F3C12000EAD3CAC3B120A06
:0B0A30009FD3EF9410EE940040ED22E5
:100A5F0053544338205541525432204F4B210D0AE5
:010A6F000086
:1009C2007517FFE4F516FB7A0079167F01120016FF
:1009D2007517FFE4F516FB7A0079167F03020016FD
:100A0200E4F516F517751801F519F51A751BFE753B
:0E0A12001CDC751D01FB7A007916FF0205330E
:100A3B00751801751601E4F517FB7A0079167F011D
:030A4B000207C4DB
:100A4E00751601E4F517751803FB7A00791602097D
:010A5E004B4C
:100974001209C2120A02120A4E120A3BD2AF7BFFBC
:100984007A0A795FE4FF12099B12026A12091F12A4
:070994000362120AB780F2B2
:10001600EFD3940740037F012212044EFED39403CC
:1000260040037F0222EF7041EE700B900001120434
:1000360067F45293529412044EB4010B90000112CD
:1000460004674293F4529412044EFEB4020A9000DE
:100056000112046742934294EEB4030D900001121C
:100066000467FEF45293EE4294EF64017043120467
:100076004EFE700B900001120467F452915292EEFC
:10008600B4010B9000011204674291F452921204DB
:100096004EB4020A90000112046742914292120481
:1000A6004EB4030D900001120467FEF45291EE4225
:1000B60092EF6402704312044EFE700B9000011220
:1000C6000467F452955296EEB4010B9000011204A7
:1000D600674295F4529612044EB4020A9000011239
:1000E60004674295429612044EB4030D9000011225
:1000F6000467FEF45295EE4296EF640370431204D1
:100106004EFE700B900001120467F452B152B2EE2B
:10011600B4010B90000112046742B1F452B212040A
:100126004EB4020A90000112046742B142B21204B0
:100136004EB4030D900001120467FEF452B1EE4274
:10014600B2EF6404704312044EFE700B900001126D
:100156000467F452B352B4EEB4010B9000011204DA
:100166006742B3F452B412044EB4020A900001126C
:10017600046742B342B412044EB4030D9000011258
:100186000467FEF452B3EE42B4EF64057043120402
:100196004EFE700B900001120467F452C952CAEE6B
:1001A600B4010B90000112046742C9F452CA12044A
:1001B6004EB4020A90000112046742C942CA1204F0
:1001C6004EB4030D900001120467FEF452C9EE42CC
:1001D600CAEF6406704312044EFE700B90000112C3
:1001E6000467F452CB52CCEEB4010B90000112041A
:1001F6006742CBF452CC12044EB4020A90000112AC
:10020600046742CB42CC12044EB4030D9000011297
:100216000467FEF452CBEE42CCEF6407704312043F
:100226004EFF700B900001120467F452E152E2EFA8
:10023600B4010B90000112046742E1F452E2120489
:100246004EB4020A90000112046742E142E212042F
:100256004EB4030D900001120467FFF452E1EF4221
:04026600E27F002211
:10094B0012044EB4010375C12090000212046754C7
:10095B0007FFE5C154F84FF5C19000011204677011
:09096B000453C1F72243C1082224
:040AB70043C1102205
:10082D00C103012C00022A0000012D000228000046
:1009E200E52D146009047017D2B6752D0122E52C8D
:1009F200D394184008E4F52CC203F52D22B2B62296
:03000B000206ECFE
:1006EC00C0E0C0F0C083C082C0D075D000C000C0D4
:1006FC0001C002C003C004C005C006C007C2A905E2
:10070C002BE52B7002052A300305052C1209E2AEED
:10071C002AAF2B7C007D281204A6ED4C7013052902
:10072C00E52970020528120ABE5004B2B58002C237
:10073C00B5D2A9D007D006D005D004D003D002D0B2
:0E074C0001D000D0D0D082D083D0F0D0E032E7
:08000300D203E4F52CF52D22D7
:030ABB00A2032271
:05000E00AE2AAF2B2219
:050AAD00AE28AF292274
:080A9F00C3EF9DFFEE9CFE2257
:10053300EF60030205E8C28C900002120467B40165
:1005430004D2A98002C2A9900001120467FED394C9
:100553000340037F0222EE700553B7FDC2B990003A
:1005630001120467B4010553B7FDD2B9900001121B
:100573000467FFB4020543B702C2B9EFB4030543EE
:10058300B702D2B912044EFEC3940340037F022282
:10059300E58954CF4EF589900003120467FFB40137
:1005A30003538E7FEF7003438E80EFB402054389BC
:1005B3000480035389FB900004120467B4010543CC
:1005C3008F018003538FFE9000051204FBFDACF0F6
:1005D300ECF58CAF058F8A900007120467B4010213
:0805E300D28C7F00227F02226E
:0D083D00C10401320002300000022E000054
:030ABE00A204226D
:0F0A7000E4F532EF25E0F531EE33F530D2042214
:10091F00300428E53214600E047020120AAD8E2EBA
:10092F008F2F75320122120AADAD2FAC2E120A9FF6
:0C093F00C3EF9531EE95304002C2042257
:0B084A00C10501330004340000000071
:0E0A7F00D205E4F533F537F536F535F53422BA
:030AC100A2052269
:0300130002075A87
:10075A00C0E0C0F0C083C082C0D075D000C000C065
:10076A0001C002C003C004C005C006C00730052F7F
:10077A0012000EAC36AD37120A9FD3EF9404EE94F2
:10078A0000500D0533E533C394034007C2058003C7
:10079A0075330012000EE48F378E36F535F534D0F6
:1007AA0007D006D005D004D003D002D001D000D0A3
:0A07BA00D0D082D083D0F0D0E0321E
:1007C400EF6401705DC28B900002120467B40104EF
:1007D400D2AA8002C2AA900001120467FED3940335
:1007E40040037F0222EE700553B7FBC2BA900001AA
:1007F400120467B4010553B7FBD2BA900001120486
:1008040067FFB4020543B704C2BAEFB4030543B7A4
:1008140004D2BA12044EB40104D28A8002C28A7F7E
:0508240000227F02220A
:10085500C100C101C10202220000012100022400E1
:05086500000226000066
:050AB200AE26AF272273
:030AC400A201226A
:030AC700A2002268
:030ACA00A2022263
:060AA700D200E4F521225B
:1003620020000302044DE52114601714604D14703F
:10037200030203F42403600302044D1200037521F7
:100382000122120ABB500302044D12000E8E248F6A
:1003920025E52345227007120A7F752102221200E9
:1003A2000EAD25AC24120A9FC3EF9460EE94005068
:1003B2000302044D120A7F75210322120AC1400E64
:1003C200752200752301D2017FF47E01801E120086
:1003D2000EAD25AC24120A9FC3EF9450EE94004058
:1003E2006AC201E4F526F5277FD07E07120A70C2A1
:1003F2000022120AC1403D12000EAD25AC24120AA1
:100402009F7C357D201204948E268F27C3E5279486
:10041200FAE52694005007E4F526F5278011D3E586
:100422002794F6E526940940067526097527F6D223
:1004320002C20022120AADAD25AC24120A9FC3EFFC
:0C04420094A0EE940F4004C202C20022FD
:1006770072656376204944210D0A0072656376200E
:1006870049442074696D656F7574210D0A0073659F
:100697006E736F722073656C6620636865636B2188
:1006A7000D0A0073656E736F72206973206F6B217B
:1006B7000D0A004E6F2073656E736F72210D0A006D
:1006C7007468657265206973206F62737461636C07
:1006D70065210D0A004E6F206F62737461636C654C
:0506E70073210D0A0063
:07086A00013A000238000012
:10026A00E53A14602B146058146066147003020394
:10027A0008147003020316240560030203617FF465
:10028A007E01120A70120AAD8E388F39753A012230
:10029A0020B4087BFF7A067977801C120AADAD3943
:1002AA00AC38120A9FC3EF9414EE94005003020371
:1002BA00617BFF7A067982E4FF12099B753A022272
:1002CA00120AA7753A037BFF7A067995E4FF0209B9
:1002DA009B120AC75003020361120AC47BFF500E25
:1002EA007A0679AAE4FF12099B753A04800C7A0609
:1002FA0079BAE4FF12099BE4F53A7F018056120AA3
:10030A00A7120AAD8E388F39753A0522120AC740EC
:10031A0046120ACA501B120AADAD39AC38120A9FEE
:10032A00C3EF9464EE940040297BFF7A0679C78074
:10033A0019120AADAD39AC38120A9FC3EF9490EE88
:10034A009401400E7BFF7A0679DCE4FF12099B7563
:08035A003A047F02120872222E
:090A8D00EF7003C29022C2912215
:090A9600EF7003D29022D29122EC
:0408BB008F1C8D1DE4
:1008BF00120A8D120A20E4F51EE51DAF1C30E0056B
:1008CF00120A968003120A8D120A20E51DC313F532
:1008DF001D051EE51EC3940840DFAF1C120A9602C9
:0208EF000A20DD
:10099B008F168B178A188919AB17AA18A919120465
:1009AB004EFD6012AF161208BB74012519F519E440
:0709BB003518F51880E22257
:0808F1008B178A1889198D1A72
:1008F900E4F51BF51BE51BC3951A5019AB17AA188C
:10090900A919851B82758300120467FD7F011208EE
:05091900BB051B80E09E
:01091E0022B6
:100872008F16E51670047508AA22E516B4011775DD
:1008820008BB120AC4E433F509750ABF7B007A007B
:1008920079087D03801FE516B4021D7508CC120A83
:1008A200B27C007D0A1204A68F147515CF7B007AE4
:0908B2000079087D0E1208F12204
:030000000205EB0B
:0C05EB00787FE4F6D8FD75813C020632F2
:10044E00BB010689828A83E0225002E722BBFE02AC
:09045E00E32289828A83E49322DF
:10046700BB010CE58229F582E5833AF583E022504A
:1004770006E92582F8E622BBFE06E92582F8E22294
:0D048700E58229F582E5833AF583E49322AE
:10049400EF8DF0A4A8F0CF8CF0A428CE8DF0A42E7C
:0204A400FE2236
:1004A600BC000BBE0029EF8DF084FFADF022E4CC3A
:1004B600F875F008EF2FFFEE33FEEC33FCEE9DEC03
:1004C600984005FCEE9DFE0FD5F0E9E4CEFD22ED49
:1004D600F8F5F0EE8420D21CFEADF075F008EF2F93
:1004E600FFED33FD4007985006D5F0F222C398FD84
:0504F6000FD5F0EA2221
:1004FB00BB0110E58229F582E5833AF583E0F5F03F
:10050B00A3E0225009E92582F886F008E622BBFE1B
:10051B000AE92582F8E2F5F008E222E5832AF58361
:08052B00E993F5F0A3E9932226
:1005F700020974E493A3F8E493A34003F68001F29D
:1006070008DFF48029E493A3F85407240CC8C33304
:10061700C4540F4420C8834004F456800146F6DFD3
:10062700E4800B0102040810204080900829E47E32
:10063700019360BCA3FF543F30E509541FFEE493C8
:10064700A360010ECF54C025E060A840B8E493A38F
:10065700FAE493A3F8E493A3C8C582C8CAC583CABA
:10066700F0A3C8C582C8CAC583CADFE9DEE780BE72
:010871000086
:00000001FF
