:04100E00025000008C
:1012D3007509FFE4F508FB7A0079087F01120566BA
:1012E3007509017508017B007A0079087F011205F1
:1012F300667509FFE4F508FB7A0079087F03120598
:10130300667509107508017B007A0079087F03125E
:1013130005667509247508037B007A0079087F0345
:05132300120566C2B2D4
:0113280022A2
:1013F900E4F508750901F50AF50BF50C750DFE758F
:101409000ED4750F01FB7A007908FF120976E4F50D
:1014190008F509750A01F50BF50C750DE8750E90BF
:0D142900750F01FB7A0079087F010209763A
:1015A200750801E4F509750A03FB7A00790802144B
:0115B20063D5
:10001E001212D31213F91215A2D2AF1207BA120D81
:10002E00391213B81211BF120C29120E241215E632
:02003E0080E957
:10056600EFD3940740037F0122120301FED39403C5
:1005760040037F0222EF7041EE700B9000011203E0
:100586001AF452935294120301B4010B9000011213
:10059600031A4293F45294120301FEB4020A900025
:1005A6000112031A42934294EEB4030D9000011215
:1005B600031AFEF45293EE4294EF64017043120361
:1005C60001FE700B90000112031AF452915292EE42
:1005D600B4010B90000112031A4291F452921203D5
:1005E60001B4020A90000112031A429142921203C8
:1005F60001B4030D90000112031AFEF45291EE426B
:1006060092EF64027043120301FE700B9000011218
:10061600031AF452955296EEB4010B9000011203A0
:100626001A4295F45296120301B4020A900001127E
:10063600031A42954296120301B4030D900001126B
:10064600031AFEF45295EE4296EF640370431203CA
:1006560001FE700B90000112031AF452B152B2EE71
:10066600B4010B90000112031A42B1F452B2120304
:1006760001B4020A90000112031A42B142B21203F7
:1006860001B4030D90000112031AFEF452B1EE42BA
:10069600B2EF64047043120301FE700B9000011266
:1006A600031AF452B352B4EEB4010B9000011203D4
:1006B6001A42B3F452B4120301B4020A90000112B2
:1006C600031A42B342B4120301B4030D900001129F
:1006D600031AFEF452B3EE42B4EF640570431203FC
:1006E60001FE700B90000112031AF452C952CAEEB1
:1006F600B4010B90000112031A42C9F452CA120344
:1007060001B4020A90000112031A42C942CA120336
:1007160001B4030D90000112031AFEF452C9EE4211
:10072600CAEF64067043120301FE700B90000112BB
:10073600031AF452CB52CCEEB4010B900001120313
:100746001A42CBF452CC120301B4020A90000112F1
:10075600031A42CB42CC120301B4030D90000112DE
:10076600031AFEF452CBEE42CCEF64077043120339
:1007760001FF700B90000112031AF452E152E2EFEE
:10078600B4010B90000112031A42E1F452E2120383
:1007960001B4020A90000112031A42E142E2120376
:1007A60001B4030D90000112031AFFF452E1EF4267
:0407B600E27F0022BC
:10146300120301B4010375C12090000212031A5440
:1014730007FFE5C154F84FF5C190000112031A703C
:091483000453C1F72243C1082201
:0415E60043C11022CB
:10101200C10AC109C108014300023F0000014400A6
:08102200023D00000241000044
:1014DA00E544146009047014D2B675440122E54348
:0D14EA00D394184005C20AC2A922B2B6224E
:0A15C000D20AE4F543F544D2A92253
:03004000A20A22EF
:05000E00AE3FAF4022EF
:05001600AE41AF4222E3
:0515D700AE3DAF3E2215
:08000300C3EF9DFFEE9CFE22FD
:03000B0002152CAF
:10152C00C0E0C0D00540E5407002053F300A05051B
:09153C00431214DAD0D0D0E032E1
:03001B0002127B53
:10127B00C0E0C0F0C083C082C0D075D000C000C039
:10128B0001C002C003C004C005C006C0070542E58B
:10129B004270020541200913D209053EE53E70025A
:1012AB00053D1215EA5006B2B58002C209D007D02F
:1012BB0006D005D004D003D002D001D000D0D0D0BE
:0812CB0082D083D0F0D0E032A4
:10097600AD07ED6003020A2FC28C90000212031A23
:10098600B40104D2A98002C2A990000112031AFE82
:10099600D3940340037F0222EE700553B7FDC2B91C
:1009A60090000112031AB4010553B7FDD2B99000A5
:1009B6000112031AFFB4020543B702C2B9EFB4032A
:1009C6000543B702D2B9120301FEC3940340037F65
:1009D6000222E58954CF4EF58990000312031AFFCF
:1009E600B40103538E7FEF7003438E80EFB402058C
:1009F60043890480035389FB90000412031AB4014F
:100A060005438F018003538FFE90000512039CE57A
:100A1600F0F58C90000512039CF58A9000071203EE
:100A26001AB40102D28C7F0022ED64016003020A2F
:100A3600E6C28E90000212031AB40104D2AB800201
:100A4600C2AB90000112031AFED3940340037F0247
:100A560022EE700553B7F7C2BB90000112031AB419
:100A6600010553B7F7D2BB90000112031AFFB40277
:100A76000543B708C2BBEFB4030543B708D2BB12A0
:100A86000301FEC3940340037F0222E58954CF4E3F
:100A9600F58990000312031AFFB40103538EBFEFCA
:100AA6007003438E40EFB4020543894080035389A7
:100AB600BF90000412031AB40105438F028003534A
:100AC6008FFD90000512039CFDACF0ECF58DAF0593
:100AD6008F8B90000712031AB40102D28E7F002278
:030AE6007F02226A
:04102A00C10BC10C29
:0315EA00A20C222E
:10154500E4F545EF25E0F548EE33F5478D46D20C39
:03155500D20B2294
:0515DC00C20BC20C224D
:1011BF00300B5AE5451460141460312402704ED27E
:1011CF000C1215D78E498F4A754501221215D7ADCE
:1011DF004AAC49120003C3EF9548EE9547402EC223
:1011EF000CE54660030215DC754502221215D7ADDA
:1011FF004AAC49120003AC06AD07E54825E0FFE510
:0E120F004733FEC3ED9FEC9E4003E4F54522FD
:0B102E00C10D011B00041C00000000AD
:10155800750A01750801E4F509FB7A0079087F012D
:0315680002115A13
:10156B00121558D20DE4F51BF51FF51EF51DF51CD4
:03157B00D2A922D0
:10157E00C20DE4F51BF51FF51EF51DF51CC2AAC222
:02158E00A92290
:0315ED00A20D222A
:0300130002108157
:10108100C0E0C0F0C083C082C0D075D000C000C035
:1010910001C002C003C004C005C006C007300D3244
:1010A10012000EAC1EAD1F120003D3EF9405EE9497
:1010B100005010051BE51BC39403400AC20D121515
:1010C1007E8003751B0012000EE48F1F8E1EF51D1E
:1010D100F51CD007D006D005D004D003D002D00132
:0D10E100D000D0D0D082D083D0F0D0E0324B
:10115A00EF6401705DC28B90000212031AB401049D
:10116A00D2AA8002C2AA90000112031AFED39403E3
:10117A0040037F0222EE700553B7FBC2BA9000010A
:10118A0012031AB4010553B7FBD2BA900001120335
:10119A001AFFB4020543B704C2BAEFB4030543B752
:1011AA0004D2BA120301B40104D28A8002C28A7F2D
:0511BA0000227F02226B
:10103900C101C102C103C100014B00024C00000201
:031049004E000056
:0515E100AE4EAF4F22E9
:0315F000A2022232
:0315F300A2012230
:0315F600A203222B
:0615D100D201E4F54B22FB
:100C2900200103020D38E54B14602B146057147032
:100C390003020CC824036003020D381215FC50038B
:100C4900020D381200168E4C8F4D1215C0E4F54E68
:100C5900F54F754B01221200405003020D38200058
:100C69000712156B754B0222120016AD4DAC4C12D2
:100C79000003C3EF9406EE94005003020D381215D9
:100C89006B754B03221215ED4010D200D202E4FD20
:100C99007FF47E01121545C20122120016AD4DAC3A
:100CA9004C120003C3EF94A0EE94005003020D38D8
:100CB900C202E4FD7FD07E07121545C201806D1284
:100CC90015ED404B120016AD4DAC4C120003AC06AD
:100CD900AD07E4120151E4FBFA792A784212004681
:100CE90012018A8E4E8F4FC3E54F94FAE54E940058
:100CF9005007E4F54EF54F8011D3E54F94F6E54ED4
:100D090094094006754E09754FF6D203C2012212A5
:100D19000016AD4DAC4C120003C3EF94A0EE940045
:100D2900400DC203C201754E00754FA012157E22F7
:1010EE0072656376204944210D0A0072656376208D
:1010FE0049442074696D656F7574210D0A0073651E
:10110E006E736F722073656C6620636865636B2106
:10111E000D0A0073656E736F72206973206F6B21F9
:10112E000D0A004E6F2073656E736F72210D0A00EB
:10113E006F62737461636C65210D0A004E6F206FD0
:0C114E0062737461636C6573210D0A000C
:10104C00C107C106C104C105042900000000012824
:10105C0000022E0000012500012400012D000222B7
:09106C0000000130000226000022
:0315F900AF2422FA
:1007BA00300703020975E528B40D004003020975E4
:1007CA009007D1F82828730207F8020805020823BF
:1007DA0002083F02088402089A0208D10208DC02D1
:1007EA000910020922020951020975020970D2B5DB
:1007FA001215D78E2E8F2F752801221215D7AD2FDD
:10080A00AC2E120003C3EF9414EE940050030209B5
:10081A0075A2B49204752802221215D7AD2FAC2EF8
:10082A00120003C3EF9432EE94005003020975C21A
:10083A00B5752803221215D7AD2FAC2E120003C3AB
:10084A00EF9464EE94005003020975A2B492052055
:10085A00B412A205300401B3400575240180157550
:10086A0024028010A205300401B34005E4F5248077
:10087A000375240375280402148CE524B4030DE4DB
:10088A00FD7F021214F775280502091A75280A2233
:10089A001215D7AD2FAC2E120003C3EF9432EE948B
:1008AA00005003020975120EF6EF6005752B0180E0
:1008BA000F0525752804E525C3940350030209751D
:1008CA00E4F52575280622E4FDFF1214F7752807BA
:1008DA00803E1215D7AD2FAC2E120003C3EF94320F
:1008EA00EE94005003020975120EF6EF60057529A1
:1008FA0001800C0525752806E525C39403406CE4A0
:10090A00F52575280822E4FD7F011214F7752809D8
:10091A001215D78E2E8F2F221215D7AD2FAC2E126D
:10092A000003C3EF9432EE94004040120EF6EF60DB
:10093A0005752A01800C0525752808E525C3940349
:10094A004029E4F525801B1215D7AD2FAC2E1200D5
:10095A0003C3EF9458EE940240028006120EF6EF9B
:0C096A00600975280C22E4F528D2072251
:100D3900200703020E23E52D14602C14605714605C
:100D490063147003020DCF147003020DDD240560D6
:100D590003020E23E4FD7F96FE1215451215D78E68
:100D6900228F23752D012220B4087BFF7A1079EE9A
:100D7900801C1215D7AD23AC22120003C3EF9414C3
:100D8900EE94005003020E237BFF7A1079F91215B5
:100D9900CA752D02221215D1752D037BFF7A11799F
:100DA9000C0215CA1215F340711215F07BFF500B96
:100DB9007A1179211215CA752D04227A1179311205
:100DC90015CAE4F52D221215D78E228F231215D1BB
:100DD900752D05221215F340411215F6501B1215F7
:100DE900D7AD23AC22120003C3EF9464EE94004004
:100DF900297BFF7A11793E80191215D7AD23AC22D0
:100E0900120003C3EF9490EE9401400E7BFF7A1118
:0B0E1900794A1215CA752D04D206227A
:100E2400200603020EF5E530B408004003020EF577
:100E3400900E3BF8282873020E53020E68020E82AD
:100E4400020E8E020EA8020EBA020ED4020EECE5B9
:100E540024B4030C7D017F021214F7753001804E17
:100E6400753007221215D7AD27AC26120003C3EF45
:100E74009428EE9400407A120EF6753002227D0119
:100E8400E4FF1214F775300380241215D7AD27AC94
:100E940026120003C3EF9428EE94004054120EF679
:100EA400753004227D017F011214F7753005121587
:100EB400D78E268F27221215D7AD27AC2612000312
:100EC400C3EF9428EE94004028120EF675300622E3
:100ED4001215D7AD27AC26120003C3EF9428EE9465
:100EE40000400E12121D8006120EF6EF6003E4F5A8
:020EF4003022AA
:0B107500013800C10E0439000000002B
:060AE9008B148A1589162A
:100AEF00EF64026003020C26753102F532F533F51F
:100AFF0034F535F536F5377F2090002EE4F0A3DF7F
:100B0F00FC7F2090000EE4F0A3DFFCAB14AA15A924
:100B1F0016120301FF64C06008EF64406003020B0C
:100B2F00E890000A12031AFED3940340037F0222B7
:100B3F00EE700653B6FE53B5FE90000A12031AB4B8
:100B4F00010653B6FE43B50190000A12031AFFB413
:100B5F00020643B60153B5FEEFB4030643B6014395
:100B6F00B501120301B4C005439A808003539A7FE5
:100B7F009000021204D47F807E8D7D5B7C00120476
:100B8F00108F1A8E198D188C17E4FFFE7D01FCABA8
:100B9F001AAA19A918A817C31204B040037F02227A
:100BAF00C3E4951AF51AE49519F51974019518F51A
:100BBF0018E49517F517538EEF538EF7438E04AF46
:100BCF001AAE19AD18AC1778081204C18FD6851A52
:100BDF00D753AFFB438E1080037F0222AB14AA15AD
:100BEF00A91690000912031AB4010543AF0180033F
:100BFF0053AFFE90000712031AB40105439A1080F9
:100C0F0003539AEF90000B12031A5401FFE5BA54E5
:090C1F00FE4FF5BA7F00227F02AE
:010C280022A9
:030043000213297C
:10132900C0E0C083C082C0D075D000C007E59A3044
:10133900E025539AFEE537701EE535C39420400336
:10134900753500AF350535740E2FF582E43400F597
:1013590083E59BF0753605E59A30E106539AFD75EC
:0D1369003400D007D0D0D082D083D0E03245
:0D15B300E53470FC7534018F9B539AFD22C6
:0715CA008B088A09890A223F
:10148C00750840750D00750CC2750B01750A007559
:10149C000F01751101E4F512F513FB7A0079087F41
:0614AC0002120AE9C2B2BF
:0114B2002217
:10159000E4F535F537FE7F20FD7B017A00790E02F8
:0215A000050440
:1014B300853538E53864046005E538B40516AF387A
:1014C3007E00784E7C007D017B017A00790E12024A
:0714D300DBAF38227F00228D
:0315FC00A20E221A
:0513B800120040403B63
:1013BD00E4F508D20E121590D2B200000000E4F54B
:1013CD0008E508C395335014742E2508F582E434CE
:1013DD0000F583E0FF1215B3050880E5E53470FCD8
:0B13ED0000000000E4F533C2B2C20EA5
:0113F80022D2
:101512008D09E4F533E5096010AF097E00782E7C71
:0A152200007D011202DB850933226F
:10143600EFD394C840047E058020EFD3949B4004EC
:101446007E048016EFD3946E40047E03800CEFD3A7
:0C145600943C40047E0280027E01AF0640
:011462002267
:10121D0090000074AAF0A37404F0AF39121436A331
:10122D00EFF0A3E539F0AF3A121436A3EFF0A3E5D2
:10123D003AF0AF3B121436A3EFF0A3E53BF01215D5
:10124D00E17C007D0A120347121436900008EFF07E
:10125D001215E17C007D0A120347900009EFF0A3FF
:0E126D0074AFF07B017A0079007D0B02151240
:02137600AE05C2
:10137800E4FDEE900000701174EEF0A3EEF0A3EF20
:10138800F0A374BFF07D04801E74EEF0A3EEF0A30A
:10139800EFF01215E17C007D0A120347900003EF7D
:1013A800F0A374BFF07D057B017A00790002151265
:1014F70090000074BBF0A3EDF0A3EFF0A374BFF06E
:0B1507007B017A0079007D04021512C0
:100EF600E4F5081214B3EF7002FF221215F9EF643D
:100F060003704190004FE07014A3E0FF700280660A
:100F1600EFB401028060EF6402705E805990005069
:100F2600E0FF7006A3E0F539804CEFB401089000AD
:100F360051E0F53A8040900050E06402703BA3E037
:100F4600F53B803290004FE070171215F9AE07900E
:100F56000050E0FF6E702290004FE0FD1213768085
:100F6600151215F9AE07900050E0FFB5060B90007C
:0B0F76004FE0FD121376750801AF0874
:010F8100224D
:10004600EC4D6011E8497017ED33EC3304600DE4B4
:10005600FCFFFEFD22E933E8330470F80201F612D4
:1000660001C158046009E4CC2481500628500902D5
:1000760002002840030201FDC0E0EB4A7044B9804B
:1000860006D0E0FB0201ECEF4E701CBD8008EBFFD2
:10009600EAFEE9FD80EBE98DF0A4FEE5F002012F12
:1000A600E9CDF9EAFEEBFFEF89F0A4FCE5F0CE8995
:1000B600F0A42EFFE435F0CD89F0A42DFEE435F052
:1000C6008067EF4E7005BD80D780C3EF8BF0A4AC80
:1000D600F0EE8BF0A42CFCE435F0F8EF8AF0A42CBB
:1000E600E5F038FCE433CB8DF0A42CFCE5F03BF8CE
:1000F600EE8AF0A42CFCE5F038F8E433CF89F0A4BE
:100106002CFCE5F038CF3400CE89F0A42FFFE5F0C3
:100116003EFEE433C98DF0A42EFEE5F039CD8AF01B
:10012600A42FFFE5F03EFEE43DFD33D0E0FB500793
:100136000BBB000F020200EC2CFCEF33FFEE33FE8C
:06014600ED33FD0201D8BB
:10014C0075F020800E75F010800575F0087D007E2E
:10015C00007F003392D530D5031204A2EC3340104B
:10016C00EF33FFEE33FEED33FDEC33FCD5F0ED2237
:0E017C00E5F0247EA2D513CC92E7CDCEFF2273
:10018A00EDD2E7CD33EC3392D524814006E4FFFE6D
:10019A00FDFC22FCE4CFCECDCC24E0501174FF80CC
:1001AA00EDC3CC13CCCD13CDCE13CECF13CF047069
:0701BA00F030D5DE0204A2C3
:1001C100E9D2E7C933E833F892D5EDD2E7CD33EC84
:0701D10033FC5002B2D522FD
:1001D800EC30E7100FBF000C0EBE00080DBD000488
:1001E8000BEB6014A2D5EB13FCED92E7FD2274FF34
:1001F800FCFDFEFF22E480F8A2D574FF13FC7D808D
:03020800E480EFA0
:03000000020F826A
:0C0F8200787FE4F6D8FD758151020FC99C
:10020B00E709F608DFFA8046E709F208DFFA803ED5
:10021B0088828C83E709F0A3DFFA8032E309F608C2
:10022B00DFFA8078E309F208DFFA807088828C832A
:10023B00E309F0A3DFFA806489828A83E0A3F608DE
:10024B00DFFA805889828A83E0A3F208DFFA804CB8
:10025B0080D280FA80C680D4806980F2803380108F
:10026B0080A680EA809A80A880DA80E280CA8033F8
:10027B0089828A83ECFAE493A3C8C582C8CCC58370
:10028B00CCF0A3C8C582C8CCC583CCDFE9DEE78040
:10029B000D89828A83E493A3F608DFF9ECFAA9F0BF
:1002AB00EDFB2289828A83ECFAE0A3C8C582C8CC15
:1002BB00C583CCF0A3C8C582C8CCC583CCDFEADE2E
:1002CB00E880DB89828A83E493A3F208DFF980CC90
:1002DB0088F0EF60010E4E60C388F0ED2402B40489
:1002EB000050B9F582EB2402B4040050AF23234530
:0602FB00822390025B73F8
:10030100BB010689828A83E0225002E722BBFE02FA
:09031100E32289828A83E493222D
:10031A00BB010CE58229F582E5833AF583E0225098
:10032A0006E92582F8E622BBFE06E92582F8E222E2
:0D033A00E58229F582E5833AF583E49322FC
:10034700BC000BBE0029EF8DF084FFADF022E4CC9A
:10035700F875F008EF2FFFEE33FEEC33FCEE9DEC63
:10036700984005FCEE9DFE0FD5F0E9E4CEFD22EDA9
:10037700F8F5F0EE8420D21CFEADF075F008EF2FF3
:10038700FFED33FD4007985006D5F0F222C398FDE4
:050397000FD5F0EA2281
:10039C00BB0110E58229F582E5833AF583E0F5F09F
:1003AC00A3E0225009E92582F886F008E622BBFE7C
:1003BC000AE92582F8E2F5F008E222E5832AF583C2
:0803CC00E993F5F0A3E9932287
:1003D40075F008758200EF2FFFEE33FECD33CDCCE0
:1003E40033CCC58233C5829BED9AEC99E582984063
:1003F4000CF582EE9BFEED9AFDEC99FC0FD5F0D640
:10040400E4CEFBE4CDFAE4CCF9A88222B800C1B969
:100414000059BA002DEC8BF084CFCECDFCE5F0CBA7
:10042400F97818EF2FFFEE33FEED33FDEC33FCEBE0
:1004340033FB10D703994004EB99FB0FD8E5E4F99B
:10044400FA227818EF2FFFEE33FEED33FDEC33FC88
:10045400C933C910D7059BE99A4007EC9BFCE99A7C
:10046400F90FD8E0E4C9FAE4CCFB2275F010EF2FC1
:10047400FFEE33FEED33FDCC33CCC833C810D707C1
:100484009BEC9AE899400AED9BFDEC9AFCE899F8FC
:0E0494000FD5F0DAE4CDFBE4CCFAE4C8F9228F
:0E04A200C3E49FFFE49EFEE49DFDE49CFC226B
:1004B000EB9FF5F0EA9E42F0E99D42F0E89C45F0A2
:0104C0002219
:1004C100E8600FECC313FCED13FDEE13FEEF13FF19
:0304D100D8F1223D
:1004D400BB010DE58229F582E5833AF58302053DEA
:1004E4005007E92582F8020530BBFE07E92582F8AA
:1004F400020549E58229F582E5833AF5830205562A
:10050400EF4E6012EF60010EEDBB010B89828A830E
:10051400F0A3DFFCDEFA2289F05007F709DFFCA91B
:0C052400F022BBFEFCF309DFFCA9F02272
:100F8E0002001EE493A3F8E493A34003F68001F25B
:100F9E0008DFF48029E493A3F85407240CC8C33364
:100FAE00C4540F4420C8834004F456800146F6DF33
:100FBE00E4800B010204081020408090100EE47EA5
:100FCE00019360BCA3FF543F30E509541FFEE49328
:100FDE00A360010ECF54C025E060A840B8E493A3EF
:100FEE00FAE493A3F8E493A3C8C582C8CAC583CA1A
:100FFE00F0A3C8C582C8CAC583CADFE9DEE780BED2
:01108000006F
:0D053000E6FB08E6F908E6FA08E6CBF8223B
:0C053D00E0F8A3E0F9A3E0FAA3E0FB2241
:0D054900E2FB08E2F908E2FA08E2CBF82232
:10055600E493F8740193F9740293FA740393FB22FB
:00000001FF
