:0407FC00022B0000CC
:10096C0012000E8E2B8F2C12000EAD2CAC2B1209FC
:0B097C00D9D3EF9410EE940040ED2260
:1009AB0053544338205541525432204F4B210D0A9A
:0109BB00003B
:10090E007509FFE4F508FB7A0079087F01120016DD
:10091E007509FFE4F508FB7A0079087F03020016DB
:10094E00E4F508F509750A01F50BF50C750DFE7544
:0E095E000EDC750F01FB7A007908FF0205021E
:10098700750A01750801E4F509FB7A0079087F010A
:03099700020797BD
:10099A00750801E4F509750A03FB7A00790802086B
:0109AA009DAF
:1008C60012090E12094E12099A120987D2AF7BFF3E
:1008D6007A0979AB1208EB12034F12084512042964
:0508E6001209F180F28F
:10001600EFD3940740037F012212026AFED39403B2
:1000260040037F0222EF7041EE700B900001120236
:1000360083F45293529412026AB4010B9000011297
:1000460002834293F4529412026AFEB4020A9000AA
:100056000112028342934294EEB4030D9000011202
:100066000283FEF45293EE4294EF6401704312024F
:100076006AFE700B900001120283F452915292EEC6
:10008600B4010B9000011202834291F452921202C3
:100096006AB4020A9000011202834291429212024D
:1000A6006AB4030D900001120283FEF45291EE42EF
:1000B60092EF6402704312026AFE700B9000011206
:1000C6000283F452955296EEB4010B90000112028F
:1000D600834295F4529612026AB4020A9000011203
:1000E60002834295429612026AB4030D90000112F1
:1000F6000283FEF45295EE4296EF640370431202B9
:100106006AFE700B900001120283F452B152B2EEF5
:10011600B4010B90000112028342B1F452B21202F2
:100126006AB4020A90000112028342B142B212027C
:100136006AB4030D900001120283FEF452B1EE423E
:10014600B2EF6404704312026AFE700B9000011253
:100156000283F452B352B4EEB4010B9000011202C2
:100166008342B3F452B412026AB4020A9000011236
:10017600028342B342B412026AB4030D9000011224
:100186000283FEF452B3EE42B4EF640570431202EA
:100196006AFE700B900001120283F452C952CAEE35
:1001A600B4010B90000112028342C9F452CA120232
:1001B6006AB4020A90000112028342C942CA1202BC
:1001C6006AB4030D900001120283FEF452C9EE4296
:1001D600CAEF6406704312026AFE700B90000112A9
:1001E6000283F452CB52CCEEB4010B900001120202
:1001F6008342CBF452CC12026AB4020A9000011276
:10020600028342CB42CC12026AB4030D9000011263
:100216000283FEF452CBEE42CCEF64077043120227
:100226006AFF700B900001120283F452E152E2EF72
:10023600B4010B90000112028342E1F452E2120271
:100246006AB4020A90000112028342E142E21202FB
:100256006AB4030D900001120283FFF452E1EF42EB
:04026600E27F002211
:10089D0012026AB4010375C1209000021202835442
:1008AD0007FFE5C154F84FF5C190000112028370A6
:0908BD000453C1F72243C10822D3
:0409F10043C11022CC
:10080000C103011B0002190000011C0002170000B7
:10092E00E51C146009047017D2B6751C0122E51B74
:10093E00D394184008E4F51BC203F51C22B2B6226C
:03000B000206BB2F
:1006BB00C0E0C0F0C083C082C0D075D000C000C005
:1006CB0001C002C003C004C005C006C007C2A90513
:1006DB001AE51A70020519300305051B12092EAE17
:1006EB0019AF1A7C007D281202C2ED4C701305184D
:1006FB00E518700205171209F85004B2B58002C252
:10070B00B5D2A9D007D006D005D004D003D002D0E3
:0E071B0001D000D0D0D082D083D0F0D0E03218
:08000300D203E4F51BF51C22F9
:0309F500A2032238
:05000E00AE19AF1A223B
:0509E700AE17AF18225D
:0809D900C3EF9DFFEE9CFE221E
:10050200EF60030205B7C28C900002120283B401AD
:1005120004D2A98002C2A9900001120283FED394E0
:100522000340037F0222EE700553B7FDC2B990006B
:1005320001120283B4010553B7FDD2B99000011232
:100542000283FFB4020543B702C2B9EFB403054305
:10055200B702D2B912026AFEC3940340037F022299
:10056200E58954CF4EF589900003120283FFB4014E
:1005720003538E7FEF7003438E80EFB402054389ED
:100582000480035389FB900004120283B4010543E3
:100592008F018003538FFE900005120317FDACF00C
:1005A200ECF58CAF058F8A900007120283B401022A
:0805B200D28C7F00227F02229F
:0D081000C1040125000223000002210000A8
:0309F800A2042234
:0F09BC00E4F525EF25E0F524EE33F523D20422F0
:10084500300428E52514600E0470201209E78E2176
:100855008F22752501221209E7AD22AC211209D993
:0C086500C3EF9524EE95234002C204224C
:0B081D00C105012600042700000000B8
:0E09CB00D205E4F526F52AF529F528F52722B0
:0309FB00A2052230
:03001300020729B8
:10072900C0E0C0F0C083C082C0D075D000C000C096
:1007390001C002C003C004C005C006C007C2AA3078
:10074900053112000EAC29AD2A1209D9D3EF940450
:10075900EE9400500D0526E526C394034007C20513
:10076900800375260012000EE48F2A8E29F528F5DC
:1007790027D2AAD007D006D005D004D003D002D002
:0E07890001D000D0D0D082D083D0F0D0E032AA
:10079700EF6401705DC28B900002120283B4010402
:1007A700D2AA8002C2AA900001120283FED3940348
:1007B70040037F0222EE700553B7FBC2BA900001D7
:1007C700120283B4010553B7FBD2BA90000112029B
:1007D70083FFB4020543B704C2BAEFB4030543B7B6
:1007E70004D2BA12026AB40104D28A8002C28A7F92
:0507F70000227F022238
:10082800C100C101C1020211000001100002130041
:050838000002150000A4
:0509EC00AE15AF16225C
:0309FE00A2012231
:030A0100A200222E
:030A0400A2022229
:0609E100D200E4F5102233
:10042900200003020501E51014601714604D1470D3
:10043900030204BB240360030205011200037510C3
:1004490001221209F5500302050112000E8E138FC5
:1004590014E512451170071209CB7510022212001A
:100469000EAD14AC131209D9C3EF9460EE94005089
:10047900030205011209CB751003221209FB400E74
:10048900751100751201D2017FF47E01801E1200E0
:100499000EAD14AC131209D9C3EF9450EE94004079
:1004A90057C201E4F515F5167FD07E071209BCC2C3
:1004B90000221209FB402A12000EAD14AC131209D6
:1004C900D97C357D201202B08E158F16C3E516949E
:1004D900FAE51594005005E4F515F516D202C200A7
:1004E900221209E7AD14AC131209D9C3EF94A0EE97
:0904F900940F4004C202C200226B
:1006460072656376204944210D0A0072656376203F
:1006560049442074696D656F7574210D0A007365D0
:100666006E736F722073656C6620636865636B21B9
:100676000D0A0073656E736F72206973206F6B21AC
:100686000D0A004E6F2073656E736F72210D0A009E
:100696007468657265206973206F62737461636C38
:1006A60065210D0A004E6F206F62737461636C657D
:0506B60073210D0A0094
:07083D00011F00021D000075
:10034F00E51F14602814605314605F1460791470F3
:10035F00030203E4240560030204287FF47E0112E4
:10036F0009BC1209E78E1D8F1E751F012220B408CC
:10037F007BFF7A067946801C1209E7AD1EAC1D1271
:10038F0009D9C3EF9414EE940050030204287BFFA5
:10039F007A0679511208EB751F02221209E1751FB7
:1003AF00037BFF7A0679640208EB120A01406A1296
:1003BF0009FE7BFF50067A06797980577A0679898C
:1003CF001208EBE4F51F221209E11209E78E1D8FC7
:1003DF001E751F0522120A01403F120A04501B12FC
:1003EF0009E7AD1EAC1D1209D9C3EF9464EE94005A
:1003FF0040277BFF7A06799680191209E7AD1EAC6C
:10040F001D1209D9C3EF9490EE9401400C7BFF7A33
:0A041F000679AB1208EB751F0422EA
:020871008F0BEB
:10087300C29112096CE4F50CE50B30E004D29180CF
:1008830002C29112096CE50BC313F50B050CE50CC1
:0A089300C3940840E3D29102096CFF
:1008EB008B088A09890AAB08AA09A90A12026AFFAE
:1008FB0060101208717401250AF50AE43509F5092F
:03090B0080E42263
:030000000205BA3C
:0C05BA00787FE4F6D8FD75812C02060164
:10026A00BB010689828A83E0225002E722BBFE0292
:09027A00E32289828A83E49322C5
:10028300BB010CE58229F582E5833AF583E0225030
:1002930006E92582F8E622BBFE06E92582F8E2227A
:0D02A300E58229F582E5833AF583E4932294
:1002B000EF8DF0A4A8F0CF8CF0A428CE8DF0A42E62
:0202C000FE221C
:1002C200BC000BBE0029EF8DF084FFADF022E4CC20
:1002D200F875F008EF2FFFEE33FEEC33FCEE9DECE9
:1002E200984005FCEE9DFE0FD5F0E9E4CEFD22ED2F
:1002F200F8F5F0EE8420D21CFEADF075F008EF2F79
:10030200FFED33FD4007985006D5F0F222C398FD69
:050312000FD5F0EA2206
:10031700BB0110E58229F582E5833AF583E0F5F024
:10032700A3E0225009E92582F886F008E622BBFE01
:100337000AE92582F8E2F5F008E222E5832AF58347
:08034700E993F5F0A3E993220C
:1005C6000208C6E493A3F8E493A34003F68001F27D
:1005D60008DFF48029E493A3F85407240CC8C33336
:1005E600C4540F4420C8834004F456800146F6DF05
:1005F600E4800B01020408102040809007FCE47E92
:10060600019360BCA3FF543F30E509541FFEE493F9
:10061600A360010ECF54C025E060A840B8E493A3C0
:10062600FAE493A3F8E493A3C8C582C8CAC583CAEB
:10063600F0A3C8C582C8CAC583CADFE9DEE780BEA3
:0108440000B3
:00000001FF
