:040B3900023B00007B
:080D69007F047E3BDEFEDFFC8F
:010D7100225F
:100D3F0053544338205541525432204F4B210D0A02
:010D4F0000A3
:100CA0007517FFE4F516FB7A0079167F011202F042
:100CB0007517FFE4F516FB7A0079167F030202F040
:100B8600E4F516751701F518F519F51A751BFE75B6
:100B96001CD4751D01FB7A007916FF120544E4F595
:100BA60016F517751801F519F51A751BE8751C90D9
:0D0BB600751D01FB7A0079167F01020544D0
:100D2E00751601E4F517751803FB7A007916020C97
:010D3E005361
:100C7C00120CA0120B86120D2ED2AF7BFF7A0D79BF
:100C8C003FE4FF120D841207BB120C271206B71299
:040C9C000D9D80F238
:1002F000EFD3940740037F01221201E3FED394035E
:1003000040037F0222EF7041EE700B90000112015A
:10031000FCF4529352941201E3B4010B90000112C9
:1003200001FC4293F452941201E3FEB4020A9000DD
:10033000011201FC42934294EEB4030D90000112AD
:1003400001FCFEF45293EE4294EF640170431201FB
:10035000E3FE700B9000011201FCF452915292EEF8
:10036000B4010B9000011201FC4291F4529212016F
:10037000E3B4020A9000011201FC42914292120180
:10038000E3B4030D9000011201FCFEF45291EE4221
:1003900092EF640270431201E3FE700B90000112B1
:1003A00001FCF452955296EEB4010B90000112013B
:1003B000FC4295F452961201E3B4020A9000011235
:1003C00001FC429542961201E3B4030D9000011224
:1003D00001FCFEF45295EE4296EF64037043120165
:1003E000E3FE700B9000011201FCF452B152B2EE28
:1003F000B4010B9000011201FC42B1F452B212019F
:10040000E3B4020A9000011201FC42B142B21201AF
:10041000E3B4030D9000011201FCFEF452B1EE4270
:10042000B2EF640470431201E3FE700B90000112FE
:1004300001FCF452B352B4EEB4010B90000112016E
:10044000FC42B3F452B41201E3B4020A9000011268
:1004500001FC42B342B41201E3B4030D9000011257
:1004600001FCFEF452B3EE42B4EF64057043120196
:10047000E3FE700B9000011201FCF452C952CAEE67
:10048000B4010B9000011201FC42C9F452CA1201DE
:10049000E3B4020A9000011201FC42C942CA1201EF
:1004A000E3B4030D9000011201FCFEF452C9EE42C8
:1004B000CAEF640670431201E3FE700B9000011254
:1004C00001FCF452CB52CCEEB4010B9000011201AE
:1004D000FC42CBF452CC1201E3B4020A90000112A8
:1004E00001FC42CB42CC1201E3B4030D9000011297
:1004F00001FCFEF452CBEE42CCEF640770431201D4
:10050000E3FF700B9000011201FCF452E152E2EFA4
:10051000B4010B9000011201FC42E1F452E212011D
:10052000E3B4020A9000011201FC42E142E212012E
:10053000E3B4030D9000011201FCFFF452E1EF421D
:04054000E27F002234
:100C53001201E3B4010375C1209000021201FC5498
:100C630007FFE5C154F84FF5C19000011201FC7074
:090C73000453C1F72243C1082219
:040D9D0043C110221C
:100B3D00C105C10401270002230000012800022184
:060B4D000000022500007B
:100CC000E528146009047014D2B675280122E527BE
:0D0CD000D394184005C205C2A922B2B62275
:0A0D5F00D205E4F527F528D2A922F9
:030DA100A2052286
:05000E00AE23AF242227
:05001600AE25AF26221B
:050D9300AE21AF222299
:08000300C3EF9DFFEE9CFE22FD
:03000B00020CDD07
:100CDD00C0E0C0D00524E5247002052330050505CC
:090CED0027120CC0D0D0D0E03277
:03001B00020A874F
:100A8700C0E0C0F0C083C082C0D075D000C000C035
:100A970001C002C003C004C005C006C0070526E5A3
:100AA7002670020525200417D2040522E5227002CC
:100AB7000521120DA45004B2B58006C2B58002C24A
:100AC70004D007D006D005D004D003D002D001D07F
:0C0AD70000D0D0D082D083D0F0D0E0322C
:10054400AD07ED60030205FDC28C9000021201FCB0
:10055400B40104D2A98002C2A99000011201FCFED8
:10056400D3940340037F0222EE700553B7FDC2B952
:100574009000011201FCB4010553B7FDD2B99000FB
:10058400011201FCFFB4020543B702C2B9EFB40380
:100594000543B702D2B91201E3FEC3940340037FBB
:1005A4000222E58954CF4EF5899000031201FCFF25
:1005B400B40103538E7FEF7003438E80EFB40205C2
:1005C40043890480035389FB9000041201FCB401A5
:1005D40005438F018003538FFE90000512027EE5D0
:1005E400F0F58C90000512027EF58A900007120146
:1005F400FCB40102D28C7F0022ED64016003020688
:10060400B4C28E9000021201FCB40104D2AB800289
:10061400C2AB9000011201FCFED3940340037F029D
:1006240022EE700553B7F7C2BB9000011201FCB46F
:10063400010553B7F7D2BB9000011201FCFFB402CD
:100644000543B708C2BBEFB4030543B708D2BB12D6
:1006540001E3FEC3940340037F0222E58954CF4E95
:10066400F5899000031201FCFFB40103538EBFEF20
:100674007003438E40EFB4020543894080035389DD
:10068400BF9000041201FCB40105438F02800353A0
:100694008FFD90000512027EFDACF0ECF58DAF05E8
:1006A4008F8B9000071201FCB40102D28E7F0022CE
:0306B4007F0222A0
:0D0B5300C106012D00022B00000229000048
:030DA400A2062282
:0F0D5000E4F52DEF25E0F52CEE33F52BD206223E
:100C2700300628E52D14600E047020120D938E29CE
:100C37008F2A752D0122120D93AD2AAC29120003BC
:0C0C4700C3EF952CEE952B4002C2062254
:0B0B6000C107012E00042F0000000060
:100CF600751801751601E4F517FB7A0079167F0160
:030D0600020A22BC
:100D0900120CF6D207E4F52EF532F531F530F52F50
:030D1900D2A9223A
:100D1C00C207E4F52EF532F531F530F52FC2AAC233
:020D2C00A922FA
:030DA700A207227E
:0300130002094996
:10094900C0E0C0F0C083C082C0D075D000C000C074
:1009590001C002C003C004C005C006C00730073289
:1009690012000EAC31AD32120003D3EF9405EE94B0
:10097900005010052EE52EC39403400AC207120D3C
:100989001C8003752E0012000EE48F328E31F53073
:10099900F52FD007D006D005D004D003D002D0015E
:0D09A900D000D0D0D082D083D0F0D0E0328A
:100A2200EF6401705DC28B9000021201FCB40104FC
:100A3200D2AA8002C2AA9000011201FCFED3940342
:100A420040037F0222EE700553B7FBC2BA90000149
:100A52001201FCB4010553B7FBD2BA900001120196
:100A6200FCFFB4020543B704C2BAEFB4030543B7AF
:100A720004D2BA1201E3B40104D28A8002C28A7F8C
:050A820000227F0222AA
:100B6B00C101C102C103C100013300023400000204
:030B7B0036000041
:050D9800AE36AF37226A
:030DAA00A2022280
:030DAD00A201227E
:030DB000A2032279
:060D8D00D201E4F533225F
:1006B7002001030207BAE53314602314604F147056
:1006C7000302074A240360030207BA1200168E3496
:1006D7008F35120D5FE4F536F53775330122120DAC
:1006E700A150030207BA200007120D097533022231
:1006F700120016AD35AC34120003C3EF9406EE9426
:100707000050030207BA120D0975330322120DA711
:10071700400ED200D2027FF47E01120D50C2012298
:10072700120016AD35AC34120003C3EF94A0EE945B
:100737000050030207BAC2027FD07E07120D50C2D3
:1007470001806D120DA7404B120016AD35AC341267
:100757000003AC06AD07E4120129E4FBFA792A7815
:100767004212001E1201628E368F37C3E53794FAA4
:10077700E53694005007E4F536F5378011D3E537B1
:1007870094F6E536940940067536097537F6D203AF
:10079700C20122120016AD35AC34120003C3EF9428
:1007A700A0EE9400400DC203C2017536007537A054
:0407B700120D1C22E1
:1009B60072656376204944210D0A007265637620CC
:1009C60049442074696D656F7574210D0A0073655D
:1009D6006E736F722073656C6620636865636B2146
:1009E6000D0A0073656E736F72206973206F6B2139
:1009F6000D0A004E6F2073656E736F72210D0A002B
:100A06006F62737461636C65210D0A004E6F206F0F
:0C0A160062737461636C6573210D0A004B
:070B7E00013A0002380000FB
:1007BB00E53A14602B146058146066147003020839
:1007CB0059147003020867240560030208BC7FF408
:1007DB007E01120D50120D938E388F39753A01220E
:1007EB0020B4087BFF7A0979B6801C120D93AD39C2
:1007FB00AC38120003C3EF9414EE940050030208BC
:10080B00BC7BFF7A0979C1E4FF120D84753A022291
:10081B00120D8D753A037BFF7A0979D4E4FF020D33
:10082B0084120DAD50030208BC120DAA7BFF500EB3
:10083B007A0979E9E4FF120D84753A04800C7A0980
:10084B0079F9E4FF120D84E4F53A7F018060120D13
:10085B00938E388F39120D8D753A0522120DAD40DE
:10086B0050120DB05025120D93AD39AC3812000358
:10087B00C3EF9464EE940040387BFF7A0A7906E468
:10088B00FF120D84753A047F028023120D93AD394C
:10089B00AC38120003C3EF9490EE940140137BFF2E
:1008AB007A0A7912E4FF120D84753A047F02120A58
:0208BB00E32236
:090D7200EF7003C29022C291222D
:090D7B00EF7003D29022D2912204
:040BC3008F1C8D1DD9
:100BC700120D72120D69E4F51EE51DAF1C30E0052C
:100BD700120D7B8003120D72120D69E51DC313F50B
:100BE7001D051EE51EC3940840DFAF1C120D7B02D6
:020BF7000D6986
:090D84008F168B178A18891922B9
:080BF9008B178A1889198D1A67
:100C0100E4F51BF51BE51BC3951A5019AB17AA1880
:100C1100A919851B827583001201FCFD7F01120B4E
:050C2100C3051B80E08B
:010C260022AB
:100AE3008F16E51670047508AA22E516B40117756A
:100AF30008BB120DAAE433F509750ABF7B007A001F
:100B030079087D03802CE51664027029FE7F0EFDB3
:100B1300FB7A0079081202C47508CC120D987C0088
:100B23007D0A1202298F147515CF7B007A0079088C
:060B33007D0E120BF922F9
:10001E00EC4D6011E8497017ED33EC3304600DE4DC
:10002E00FCFFFEFD22E933E8330470F80201CE1224
:10003E00019958046009E4CC248150062850090225
:10004E0001D82840030201D5C0E0EB4A7044B980C4
:10005E0006D0E0FB0201C4EF4E701CBD8008EBFF22
:10006E00EAFEE9FD80EBE98DF0A4FEE5F002010762
:10007E00E9CDF9EAFEEBFFEF89F0A4FCE5F0CE89BD
:10008E00F0A42EFFE435F0CD89F0A42DFEE435F07A
:10009E008067EF4E7005BD80D780C3EF8BF0A4ACA8
:1000AE00F0EE8BF0A42CFCE435F0F8EF8AF0A42CE3
:1000BE00E5F038FCE433CB8DF0A42CFCE5F03BF8F6
:1000CE00EE8AF0A42CFCE5F038F8E433CF89F0A4E6
:1000DE002CFCE5F038CF3400CE89F0A42FFFE5F0EC
:1000EE003EFEE433C98DF0A42EFEE5F039CD8AF044
:1000FE00A42FFFE5F03EFEE43DFD33D0E0FB5007BC
:10010E000BBB000F0201D8EC2CFCEF33FFEE33FEDD
:06011E00ED33FD0201B00B
:1001240075F020800E75F010800575F0087D007E56
:10013400007F003392D530D5031202B6EC33401061
:10014400EF33FFEE33FEED33FDEC33FCD5F0ED225F
:0E015400E5F0247EA2D513CC92E7CDCEFF229B
:10016200EDD2E7CD33EC3392D524814006E4FFFE95
:10017200FDFC22FCE4CFCECDCC24E0501174FF80F4
:10018200EDC3CC13CCCD13CDCE13CECF13CF047091
:07019200F030D5DE0202B6D9
:10019900E9D2E7C933E833F892D5EDD2E7CD33ECAC
:0701A90033FC5002B2D52225
:1001B000EC30E7100FBF000C0EBE00080DBD0004B0
:1001C0000BEB6014A2D5EB13FCED92E7FD2274FF5C
:1001D000FCFDFEFF22E480F8A2D574FF13FC7D80B5
:0301E000E480EFC9
:030000000208BD36
:0C08BD00787FE4F6D8FD75813C02090448
:1001E300BB010689828A83E0225002E722BBFE021A
:0901F300E32289828A83E493224D
:1001FC00BB010CE58229F582E5833AF583E02250B8
:10020C0006E92582F8E622BBFE06E92582F8E22201
:0D021C00E58229F582E5833AF583E493221B
:10022900BC000BBE0029EF8DF084FFADF022E4CCB9
:10023900F875F008EF2FFFEE33FEEC33FCEE9DEC82
:10024900984005FCEE9DFE0FD5F0E9E4CEFD22EDC8
:10025900F8F5F0EE8420D21CFEADF075F008EF2F12
:10026900FFED33FD4007985006D5F0F222C398FD03
:050279000FD5F0EA22A0
:10027E00BB0110E58229F582E5833AF583E0F5F0BE
:10028E00A3E0225009E92582F886F008E622BBFE9B
:10029E000AE92582F8E2F5F008E222E5832AF583E1
:0802AE00E993F5F0A3E99322A6
:0E02B600C3E49FFFE49EFEE49DFDE49CFC2259
:1002C400EF4E6012EF60010EEDBB010B89828A8351
:1002D400F0A3DFFCDEFA2289F05007F709DFFCA95E
:0C02E400F022BBFEFCF309DFFCA9F022B5
:1008C900020C7CE493A3F8E493A34003F68001F2BD
:1008D90008DFF48029E493A3F85407240CC8C33330
:1008E900C4540F4420C8834004F456800146F6DFFF
:1008F900E4800B0102040810204080900B39E47E4B
:10090900019360BCA3FF543F30E509541FFEE493F3
:10091900A360010ECF54C025E060A840B8E493A3BA
:10092900FAE493A3F8E493A3C8C582C8CAC583CAE5
:10093900F0A3C8C582C8CAC583CADFE9DEE780BE9D
:010B8500006F
:00000001FF
