:1012E10053544338205541525431204F4B210D0A5C
:1012F1000053544338205541525432204F4B210D55
:021301000A00E0
:101303007509FFE4F508FB7A0079087F011206C529
:101313007509FF7508037B007A0079087F030206CD
:01132300C504
:1010A700750840750901750D00750CC2750B017542
:1010B7000A00750F01E4F510751101F512F513FB20
:1010C7007A0079087F011203A2750840E4750DC004
:1010D700750C12F50BF50AF50FF510F511F512F56C
:1010E70013FB7A0079087F021203A27BFF7A127939
:0D10F700E11213437BFF7A1279F2021356C7
:1011E200E4F508F509750A01F50BF50C750DFF75A7
:1011F2000E6A750F01FB7A007908FF120B49E4F5BC
:1012020008F509750A01F50BF50C750DE8750E90D8
:0D121200750F01FB7A0079087F01020B497E
:10002600750A01750801E4F509FB7A0079087F0174
:0300360002104273
:10136900750801E4F509750A03FB7A007908021288
:011379004B28
:101324001213031210A71211E2121369120026D22B
:0F133400AF120CBC12121F120D9B12003F80F261
:1006C500EFD3940740037F0122120919FED3940347
:1006D50040037F0222EF7041EE700B90000112097A
:1006E50032F452935294120919B4010B900001127D
:1006F50009324293F45294120919FEB4020A900089
:100705000112093242934294EEB4030D9000011296
:100715000932FEF45293EE4294EF640170431209DC
:1007250019FE700B900001120932F452915292EEAB
:10073500B4010B9000011209324291F45292120950
:1007450019B4020A9000011209324291429212092B
:1007550019B4030D900001120932FEF45291EE42D4
:1007650092EF64027043120919FE700B900001129A
:100775000932F452955296EEB4010B90000112091C
:10078500324295F45296120919B4020A90000112E8
:10079500093242954296120919B4030D90000112CF
:1007A5000932FEF45295EE4296EF64037043120946
:1007B50019FE700B900001120932F452B152B2EEDB
:1007C500B4010B90000112093242B1F452B2120980
:1007D50019B4020A90000112093242B142B212095B
:1007E50019B4030D900001120932FEF452B1EE4224
:1007F500B2EF64047043120919FE700B90000112E8
:100805000932F452B352B4EEB4010B90000112094F
:100815003242B3F452B4120919B4020A900001121B
:10082500093242B342B4120919B4030D9000011202
:100835000932FEF452B3EE42B4EF64057043120977
:1008450019FE700B900001120932F452C952CAEE1A
:10085500B4010B90000112093242C9F452CA1209BF
:1008650019B4020A90000112093242C942CA12099A
:1008750019B4030D900001120932FEF452C9EE427B
:10088500CAEF64067043120919FE700B900001123D
:100895000932F452CB52CCEEB4010B90000112098F
:1008A5003242CBF452CC120919B4020A900001125B
:1008B500093242CB42CC120919B4030D9000011242
:1008C5000932FEF452CBEE42CCEF640770431209B5
:1008D50019FF700B900001120932F452E152E2EF58
:1008E500B4010B90000112093242E1F452E21209FF
:1008F50019B4020A90000112093242E142E21209DA
:1009050019B4030D900001120932FFF452E1EF42D0
:04091500E27F00225B
:0803A2008F148B158A168917D0
:1003AA00E51464016003020571752201F523F52441
:1003BA00F525F526F527F528F51874002518F58290
:1003CA00E43401F583E4F00518E518B480ECE4F5AB
:1003DA001874002518F582E43400F583E4F0051852
:1003EA00E518B480ECAB15AA16A91790000A1209F1
:1003FA0032FED3940340037F0222EE700553B7EF17
:10040A00C2BC90000A120932B4010553B7EFD2BC3C
:10041A0090000A120932FFB4020543B710C2BCEFBA
:10042A00B4030543B710D2BC120919D394C04003D0
:10043A007F0222120919FFE598543F4FF598EF649D
:10044A00C06008EF64406003020506900002120AC9
:10045A009B7FC07EC67D2D7C001209E58F1C8E1BFA
:10046A008D1A8C19E4FFFE7D01FCAB1CAA1BA91A8C
:10047A00A819C3120A7740037F0222C3E4951CF528
:10048A001CE4951BF51B7401951AF51AE49519F5E8
:10049A0019AB15AA16A917900001120932FB6401BB
:1004AA00702CC28E538EFE5389BF5389CF438E4020
:1004BA00AF1CAE1BAD1AAC197808120A888F8D854D
:1004CA001C8BC2AB5389BF538FFDD28E8062EB6403
:1004DA00027026538EEF438E01538EF7438E04AF7C
:1004EA001CAE1BAD1AAC197808120A888FD6851C67
:1004FA00D753AFFB438E1080377F0222AB15AA1663
:10050A00A917120919FF7013900008120932B401D1
:10051A0005438E20801A538EDF8015EFB480119028
:10052A000008120932B40105438780800353877F8C
:10053A00AB15AA16A917900009120932B40104D200
:10054A00AC8002C2AC900007120932B40104D29CFA
:10055A008002C29C90000B12093254C0FFE5A254DB
:10056A003F4FF5A27F0022E514640260030206C22F
:10057A00752902F52AF52BF52CF52DF52EF52FF513
:10058A001874802518F582E43401F583E4F005181F
:10059A00E518B480ECE4F51874802518F582E43483
:1005AA0000F583E4F00518E518B480ECAB15AA163B
:1005BA00A917120919FF64C06008EF6440600302BA
:1005CA00068490000A120932FED3940340037F0284
:1005DA0022EE700653B6FE53B5FE90000A12093297
:1005EA00B4010653B6FE43B50190000A120932FF60
:1005FA00B4020643B60153B5FEEFB4030643B6018F
:10060A0043B501120919B4C005439A808003539A6D
:10061A007F900002120A9B7FC07EC67D2D7C00124D
:10062A0009E58F1C8E1B8D1A8C19E4FFFE7D01FCD7
:10063A00AB1CAA1BA91AA819C3120A7740037F0286
:10064A0022C3E4951CF51CE4951BF51B7401951A4D
:10065A00F51AE49519F519538EEF538EF7438E0464
:10066A00AF1CAE1BAD1AAC197808120A888FD68552
:10067A001CD753AFFB438E1080037F0222AB15AA0F
:10068A0016A917900009120932B4010543AF018077
:10069A000353AFFE900007120932B40105439A10C2
:1006AA008003539AEF90000B1209325401FFE5BA06
:0A06BA0054FE4FF5BA7F00227F02C4
:0106C4002213
:1012BE0074002524F582E43401F583EFF00524E56E
:1012CE0024C394804003E4F524E5257005752501BB
:0312DE00D2992280
:10134300120919FF600C1212BE740129F9E43AFA6A
:0313530080EE2207
:060039001212BE7F00223E
:03002300020FD9F0
:100FD900C0E0C083C082C0D075D000C0073098245B
:100FE900C298E528701EE526C39480400375260043
:100FF900AF26052674002FF582E43400F583E599C0
:10100900F0752705309927C299E5236524601C747A
:10101900002523F582E43401F583E0F5990523E5FC
:1010290023C3948040087523008003752500D007E9
:09103900D0D0D082D083D0E03287
:10129A007480252BF582E43401F583EFF0052BE504
:1012AA002BC394804003E4F52BE52C7006752C01C2
:0412BA00439A02222F
:10135600120919FF600C12129A740129F9E43AFA7B
:0313660080EE22F4
:03004300020F00A9
:100F0000C0E0C083C082C0D075D000C007E59A3071
:100F1000E025539AFEE52F701EE52DC39480400313
:100F2000752D00AF2D052D74802FF582E43400F56A
:100F300083E59BF0752E05E59A30E128539AFDE58F
:100F40002A652B601C7480252AF582E43401F58320
:100F5000E0F59B052AE52AC394804008752A0080A5
:0F0F600003752C00D007D0D0D082D083D0E032E0
:10124B00120919B4010375C120900002120932541E
:10125B0007FFE5C154F84FF5C19000011209327038
:09126B000453C1F72243C108221B
:04003F0043C1102287
:0D11A000C10C013B000239000002370000C5
:03000B000212746A
:10127400C0E0C0D0053AE53A70020539300C1205D9
:101284003BE53BC394184007753B00C20C8002B297
:0612940091D0D0D0E03241
:03139D00D20C224D
:0313A000A20C227A
:05000E00AE39AF3A22FB
:03001B0002115976
:10115900C0E0C0F0C083C082C0D075D000C000C05C
:1011690001C002C003C004C005C006C0070538E5B8
:1011790038700205371213A35002B2B5D007D00652
:10118900D005D004D003D002D001D000D0D0D08275
:07119900D083D0F0D0E0325A
:05001600AE37AF3822F7
:08000300C3EF9DFFEE9CFE22FD
:100B4900AD07ED6003020C02C28C9000021209325B
:100B5900B40104D2A98002C2A9900001120932FE8F
:100B6900D3940340037F0222EE700553B7FDC2B947
:100B7900900001120932B4010553B7FDD2B99000B2
:100B890001120932FFB4020543B702C2B9EFB40337
:100B99000543B702D2B9120919FEC3940340037F72
:100BA9000222E58954CF4EF589900003120932FFDC
:100BB900B40103538E7FEF7003438E80EFB40205B7
:100BC90043890480035389FB900004120932B4015C
:100BD90005438F018003538FFE900005120971E5CB
:100BE900F0F58C900005120971F58A900007120939
:100BF90032B40102D28C7F0022ED64016003020C41
:100C0900B9C28E900002120932B40104D2AB80023B
:100C1900C2AB900001120932FED3940340037F0254
:100C290022EE700553B7F7C2BB900001120932B426
:100C3900010553B7F7D2BB900001120932FFB40284
:100C49000543B708C2BBEFB4030543B708D2BB12CB
:100C59000919FEC3940340037F0222E58954CF4E4C
:100C6900F589900003120932FFB40103538EBFEFD7
:100C79007003438E40EFB4020543894080035389D2
:100C8900BF900004120932B40105438F0280035357
:100C99008FFD900005120971FDACF0ECF58DAF05E3
:100CA9008F8B900007120932B40102D28E7F002285
:030CB9007F022295
:0D11AD00C10D014000023E0000023C0000A8
:0313A300A20D2276
:0F137A00E4F540EF25E0F53FEE33F53ED20D22CE
:10121F00300D28E54014600E0470201200168E3C2D
:10122F008F3D75400122120016AD3DAC3C120003FC
:0C123F00C3EF953FEE953E4002C20D2229
:0B11BA00C10E014100044200000000D3
:0E138900D20EE4F541F545F544F543F5422258
:0313A600A20E2272
:03001300020F6F6A
:100F6F00C0E0C0F0C083C082C0D075D000C000C048
:100F7F0001C002C003C004C005C006C007300E2F59
:100F8F0012000EAC44AD45120003D3EF9404EE945F
:100F9F0000500D0541E541C394034007C20E800385
:100FAF0075410012000EE48F458E44F543F542D093
:100FBF0007D006D005D004D003D002D001D000D086
:0A0FCF00D0D082D083D0F0D0E03201
:10104200EF6401705DC28B900002120932B4010498
:10105200D2AA8002C2AA900001120932FED39403DE
:1010620040037F0222EE700553B7FBC2BA90000123
:10107200120932B4010553B7FBD2BA90000112092A
:1010820032FFB4020543B704C2BAEFB4030543B753
:1010920004D2BA120919B40104D28A8002C28A7F28
:0510A20000227F022284
:1011C500C109C10AC10B0231000001300002330020
:0511D5000002350000DE
:05001E00AE35AF3622F3
:0313A900A20A2273
:0313AC00A2092271
:0313AF00A20B226C
:06139700D209E4F530224A
:100D9B00200903020E73E53014601714604D1470B4
:100DAB0003020E2D24036003020E7312139D753084
:100DBB0001221213A05003020E7312000E8E338FFA
:100DCB0034E5324531700712138975300222120057
:100DDB000EAD34AC33120003C3EF9460EE940050AD
:100DEB0003020E73121389753003221213A6400EE1
:100DFB00753100753201D20A7FF47E01801E12001C
:100E0B000EAD34AC33120003C3EF9450EE9400409C
:100E1B0057C20AE4F535F5367FD07E0712137AC236
:100E2B0009221213A6402A12000EAD34AC33120065
:100E3B00037C357D2012095F8E358F36C3E53694E2
:100E4B00FAE53594005005E4F535F536D20BC209B9
:100E5B0022120016AD34AC33120003C3EF94A0EE94
:090E6B00940F4004C20BC20922DD
:1011040072656376204944210D0A0073656E736F1E
:1011140072206973206F6B210D0A004E6F20736576
:101124006E736F72210D0A007468657265206973AD
:10113400206F62737461636C65210D0A00643D2540
:1011440064206D6D004E6F206F62737461636C6513
:0511540073210D0A00EB
:0711DA00011F00021D0000CF
:100CBC00E51F14602514604A14604E14606B1460B8
:100CCC007624056003020D9A7FF47E0112137A12CA
:100CDC0000168E1D8F1E751F012220900B7BFF7A34
:100CEC001179041213438016120016AD1EAC1D129E
:100CFC000003C3EF9414EE94005003020D9A751F79
:100D0C000222121397751F03221213AC5003020D0B
:100D1C009A1213A97BFF50067A11790F806A7A1107
:100D2C00791F121343E4F51F221213971200168E2B
:100D3C001D8F1E751F05221213AC40521213AF509B
:100D4C002E120016AD1EAC1D120003C3EF9464EE00
:100D5C009400403A7BFF7A11792C12134312001E37
:100D6C008E0B8F0C7BFF7A1179411200A8801C121C
:100D7C000016AD1EAC1D120003C3EF9490EE94014F
:0F0D8C00400C7BFF7A117949121343751F042223
:03000000020E7479
:0C0E7400787FE4F6D8FD758145020EBBC6
:10091900BB010689828A83E0225002E722BBFE02DC
:09092900E32289828A83E493220F
:10093200BB010CE58229F582E5833AF583E022507A
:1009420006E92582F8E622BBFE06E92582F8E222C4
:0D095200E58229F582E5833AF583E49322DE
:10095F00EF8DF0A4A8F0CF8CF0A428CE8DF0A42EAC
:02096F00FE2266
:10097100BB0110E58229F582E5833AF583E0F5F0C4
:10098100A3E0225009E92582F886F008E622BBFEA1
:100991000AE92582F8E2F5F008E222E5832AF583E7
:0809A100E993F5F0A3E99322AC
:1009A90075F008758200EF2FFFEE33FECD33CDCC05
:1009B90033CCC58233C5829BED9AEC99E582984088
:1009C9000CF582EE9BFEED9AFDEC99FC0FD5F0D665
:1009D900E4CEFBE4CDFAE4CCF9A88222B800C1B98F
:1009E9000059BA002DEC8BF084CFCECDFCE5F0CBCD
:1009F900F97818EF2FFFEE33FEED33FDEC33FCEB06
:100A090033FB10D703994004EB99FB0FD8E5E4F9C0
:100A1900FA227818EF2FFFEE33FEED33FDEC33FCAD
:100A2900C933C910D7059BE99A4007EC9BFCE99AA1
:100A3900F90FD8E0E4C9FAE4CCFB2275F010EF2FE6
:100A4900FFEE33FEED33FDCC33CCC833C810D707E6
:100A59009BEC9AE899400AED9BFDEC9AFCE899F821
:0E0A69000FD5F0DAE4CDFBE4CCFAE4C8F922B4
:100A7700EB9FF5F0EA9E42F0E99D42F0E89C45F0D5
:010A8700224C
:100A8800E8600FECC313FCED13FDEE13FEEF13FF4C
:030A9800D8F12270
:100A9B00BB010DE58229F582E5833AF583020AEA6B
:100AAB005007E92582F8020ADDBBFE07E92582F82B
:100ABB00020AF6E58229F582E5833AF583020B03F8
:10004600E517240BF8E60517227808300702780B27
:10005600E475F001120B130209192000EB7F2ED272
:10006600008018EF540F2490D43440D4FF30040B92
:10007600EF24BFB41A0050032461FFE5186002158F
:1000860018051BE51B7002051A30070D7808E47584
:10009600F001120B13EF020ACB0200397403D207E8
:1000A6008003E4C207F5178B088A09890AE4F51864
:1000B600F51AF51BE51860077F2012008180F5759B
:1000C60019FFC201C200C202C203C205C206C208AB
:1000D60012004FFF700D3007057F00120092AF1B14
:1000E600AE1A22B4255FC2D5C20412004FFF24D037
:1000F600B40A00501A75F00A781830D50508B6FF0C
:100106000106C6A426F620D5047002D20380D9249F
:10011600CFB41A00EF5004C2E5D204020292D20113
:1001260080C6D20080C0D20280BCD2D580BAD205A9
:1001360080B47F201200812002077401B5180040A8
:10014600F1120046FF1200810200BAD208D20680E0
:1001560095120046FB120046FA120046F94A4B7009
:100166000679637A037BFF20022EE518602A7E005B
:100176008E8275830012093260060EEE651970F0E4
:10018600C2D5EBC0E0EAC0E0E9C0E0EE1202D9D089
:10019600E0F9D0E0FAD0E0FB120919FF60AAEBC043
:1001A600E0EAC0E0E9C0E0120081D0E02401F9D025
:1001B600E03400FAD0E0FBE5190460DCD519D980FB
:1001C600877BFF7A0279D5D202809C7910800279EA
:1001D60008C206C2088008D2D5790A8004790AC204
:1001E600D5E519047002F519E4FAFDFEFF12004682
:1001F600FC7B08200113120046FD7B1030000A121A
:100206000046FE120046FF7B20EC3382D592D55085
:1002160013C3E43000069FFFE49EFEE42001039D25
:10022600FDE49CFCE4CBF8C201EC700CCFCECDCC47
:10023600E824F8F870F38017C3EF33FFEE33FEEDD2
:1002460033FDEC33FCEB33FB994002FB0FD8E9EBB3
:10025600300105F8D0E0C448B201C0E00AEC4D4ECA
:100266004F78207B0070C2EAB5190040BCC0E0128E
:1002760002DBD0F0D0E0200104C4C0E0C4B201C06B
:10028600F012006AD0F0D5F0EB0200BA120B23018F
:10029600575301D15801284C01244201D54F01DDA5
:0F02A6004401DD49013D4301E35501C74601C74E
:1002B5004501C747038350012C2D01302E01532BD7
:1002C500013423015120036C2A00EC480000014B46
:1002D5003F3F3F00790AA2D5200314300509B91024
:1002E500020404B9080104A2D52006025001042025
:1002F50002689202B518005034C0E07F203003191F
:100305007F30A20272067205500F120332C202C27A
:1003150006C205C2087F30800F300503E9C0E01230
:100325000081300503D0E0F9D0E0B518CC300517D1
:100335007F30B9100C1200817F583004077F788018
:1003450003B908031200813002057F2D0200817F69
:10035500202008F87F2B2006F322920280CF286EFA
:10036500756C6C2900D2011200463001F8C2017883
:100375001830D50108F60200EC2D504349581200FB
:10038500462403B405004001E490037E93120072F5
:0D039500743A120072D2037518040201D1EF
:100E8000021324E493A3F8E493A34003F68001F251
:100E900008DFF48029E493A3F85407240CC8C33373
:100EA000C4540F4420C8834004F456800146F6DF42
:100EB000E4800B01020408102040809011A0E47E21
:100EC000019360BCA3FF543F30E509541FFEE49337
:100ED000A360010ECF54C025E060A840B8E493A3FE
:100EE000FAE493A3F8E493A3C8C582C8CAC583CA29
:100EF000F0A3C8C582C8CAC583CADFE9DEE780BEE1
:0111E100000D
:100ACB00BB010689828A83F0225002F722BBFE010A
:020ADB00F32204
:0D0ADD00E6FB08E6F908E6FA08E6CBF82289
:0C0AEA00E0F8A3E0F9A3E0FAA3E0FB228F
:0D0AF600E2FB08E2F908E2FA08E2CBF82280
:100B0300E493F8740193F9740293FA740393FB2248
:100B1300FAE6FB0808E6F925F0F618E6CA3AF622E3
:100B2300D083D082F8E4937012740193700DA3A361
:100B330093F8740193F5828883E473740293686075
:060B4300EFA3A3A380DF75
:00000001FF
