:040F4C00021D000082
:08115F007F047E3BDEFEDFFC95
:011167002265
:10107D007537FFE4F536FB7A0079367F011204707F
:10108D007537FFE4F536FB7A0079367F030204707D
:100FA600E4F536753701F538F539F53A753BFE75D2
:100FB6003CD4753D01FB7A007936FF1206C4E4F590
:100FC60036F537753801F539F53A753BE8753C90D5
:0D0FD600753D01FB7A0079367F010206C4EB
:10112400753601E4F537753803FB7A007936021019
:011134000FAB
:1010BA0012107D120FA6121124D2AF120A7B120F40
:0910CA00E312097712118580F28E
:10047000EFD3940740037F012212020BFED39403B3
:1004800040037F0222EF7041EE700B9000011202D8
:1004900024F45293529412020BB4010B90000112F7
:1004A00002244293F4529412020BFEB4020A90000A
:1004B0000112022442934294EEB4030D9000011203
:1004C0000224FEF45293EE4294EF64017043120250
:1004D0000BFE700B900001120224F452915292EE26
:1004E000B4010B9000011202244291F452921202C4
:1004F0000BB4020A900001120224429142921202AD
:100500000BB4030D900001120224FEF45291EE424E
:1005100092EF6402704312020BFE700B9000011206
:100520000224F452955296EEB4010B90000112028F
:10053000244295F4529612020BB4020A9000011262
:1005400002244295429612020BB4030D9000011250
:100550000224FEF45295EE4296EF640370431202B9
:100560000BFE700B900001120224F452B152B2EE55
:10057000B4010B90000112022442B1F452B21202F3
:100580000BB4020A90000112022442B142B21202DC
:100590000BB4030D900001120224FEF452B1EE429E
:1005A000B2EF6404704312020BFE700B9000011254
:1005B0000224F452B352B4EEB4010B9000011202C3
:1005C0002442B3F452B412020BB4020A9000011296
:1005D000022442B342B412020BB4030D9000011284
:1005E0000224FEF452B3EE42B4EF640570431202EB
:1005F0000BFE700B900001120224F452C952CAEE95
:10060000B4010B90000112022442C9F452CA120232
:100610000BB4020A90000112022442C942CA12021B
:100620000BB4030D900001120224FEF452C9EE42F5
:10063000CAEF6406704312020BFE700B90000112A9
:100640000224F452CB52CCEEB4010B900001120202
:100650002442CBF452CC12020BB4020A90000112D5
:10066000022442CB42CC12020BB4030D90000112C3
:100670000224FEF452CBEE42CCEF64077043120228
:100680000BFF700B900001120224F452E152E2EFD2
:10069000B4010B90000112022442E1F452E2120272
:1006A0000BB4020A90000112022442E142E212025B
:1006B0000BB4030D900001120224FFF452E1EF424B
:0406C000E27F0022B3
:10100F0012020BB4010375C1209000021202245486
:10101F0007FFE5C154F84FF5C1900001120224708B
:09102F000453C1F72243C1082259
:0411850043C1102230
:100F5000C108C10701340002300000013500022E33
:060F600000000232000057
:10109D00E535146009047014D2B675350122E534B6
:0D10AD00D394184005C208C2A922B2B62291
:0A115500D208E4F534F535D2A922E2
:03118900A2082297
:05000E00AE30AF31220D
:05001600AE32AF332201
:05117B00AE2EAF2F2293
:08000300C3EF9DFFEE9CFE22FD
:03000B000210D30D
:1010D300C0E0C0D00531E5317002053030080505A8
:0910E3003412109DD0D0D0E0328F
:03001B00020EF0E2
:100EF000C0E0C0F0C083C082C0D075D000C000C0C8
:100F000001C002C003C004C005C006C0070533E528
:100F10003370020532200717D207052FE52F700224
:100F2000052E12118C5004B2B58006C2B58002C2E3
:100F300007D007D006D005D004D003D002D001D00E
:0C0F400000D0D0D082D083D0F0D0E032BE
:1006C400AD07ED600302077DC28C90000212022484
:1006D400B40104D2A98002C2A9900001120224FE2E
:1006E400D3940340037F0222EE700553B7FDC2B9D1
:1006F400900001120224B4010553B7FDD2B9900051
:1007040001120224FFB4020543B702C2B9EFB403D5
:100714000543B702D2B912020BFEC3940340037F10
:100724000222E58954CF4EF589900003120224FF7A
:10073400B40103538E7FEF7003438E80EFB4020540
:1007440043890480035389FB900004120224B401FA
:1007540005438F018003538FFE9000051202A6E526
:10076400F0F58C9000051202A6F58A90000712029B
:1007740024B40102D28C7F0022ED640160030208DC
:1007840034C28E900002120224B40104D2AB80025F
:10079400C2AB900001120224FED3940340037F02F3
:1007A40022EE700553B7F7C2BB900001120224B4C5
:1007B400010553B7F7D2BB900001120224FFB40223
:1007C4000543B708C2BBEFB4030543B708D2BB1255
:1007D400020BFEC3940340037F0222E58954CF4EEB
:1007E400F589900003120224FFB40103538EBFEF76
:1007F4007003438E40EFB40205438940800353895C
:10080400BF900004120224B40105438F02800353F5
:100814008FFD9000051202A6FDACF0ECF58DAF053E
:100824008F8B900007120224B40102D28E7F002223
:030834007F02221E
:0D0F6600C109014F00024D0000024B0000C8
:03118C00A2092293
:0F114600E4F54FEF25E0F54EEE33F54DD20922DB
:100FE300300928E54F14600E04702012117B8E4BDC
:100FF3008F4C754F012212117BAD4CAC4B12000389
:0C100300C3EF954EEE954D4002C209224D
:0B0F7300C10A01500004510000000002
:1010EC00753801753601E4F537FB7A0079367F01E6
:0310FC00020E8B56
:1010FF001210ECD20AE4F550F554F553F552F551B0
:03110F00D2A92240
:10111200C20AE4F550F554F553F552F551C2AAC28C
:02112200A92200
:03118F00A20A228F
:03001300020DB229
:100DB200C0E0C0F0C083C082C0D075D000C000C007
:100DC20001C002C003C004C005C006C007300A3219
:100DD20012000EAC53AD54120003D3EF9405EE94FF
:100DE2000050100550E550C39403400AC20A121184
:100DF20012800375500012000EE48F548E53F55288
:100E0200F551D007D006D005D004D003D002D001CE
:0D0E1200D000D0D0D082D083D0F0D0E0321C
:100E8B00EF6401705DC28B900002120224B4010466
:100E9B00D2AA8002C2AA900001120224FED39403AC
:100EAB0040037F0222EE700553B7FBC2BA900001DC
:100EBB00120224B4010553B7FBD2BA9000011202FF
:100ECB0024FFB4020543B704C2BAEFB4030543B71A
:100EDB0004D2BA12020BB40104D28A8002C28A7FF6
:050EEB0000227F02223D
:100F7E00C101C102C103C1000155000256000002A9
:030F8E0058000008
:05118000AE58AF59223A
:03119200A2022294
:03119500A2012292
:03119800A203228D
:06116F00D201E4F5552257
:10097700200103020A7AE55514602314604F1470AE
:1009870003020A0A24036003020A7A1200168E562B
:100997008F57121155E4F558F55975550122121163
:1009A700895003020A7A2000071210FF75550222A8
:1009B700120016AD57AC56120003C3EF9406EE941F
:1009C700005003020A7A1210FF7555032212118F85
:1009D700400ED200D2027FF47E01121146C20122DC
:1009E700120016AD57AC56120003C3EF94A0EE9455
:1009F700005003020A7AC2027FD07E07121146C254
:100A070001806D12118F404B120016AD57AC561274
:100A17000003AC06AD07E4120151E4FBFA792A782A
:100A27004212004612018A8E588F59C3E55994FA2B
:100A3700E55894005007E4F558F5598011D3E55966
:100A470094F6E558940940067558097559F6D20386
:100A5700C20122120016AD57AC56120003C3EF9421
:100A6700A0EE9400400DC203C2017558007559A04D
:040A77001211122224
:100E1F0072656376204944210D0A0072656376205E
:100E2F0049442074696D656F7574210D0A007365EF
:100E3F006E736F722073656C6620636865636B21D8
:100E4F000D0A0073656E736F72206973206F6B21CB
:100E5F000D0A004E6F2073656E736F72210D0A00BD
:100E6F006F62737461636C65210D0A004E6F206FA2
:0C0E7F0062737461636C6573210D0A00DE
:100F9100C104C106C1050147000249000001480022
:040FA1000245000005
:100B7100300403020C3EE54714602B1460541460EA
:100B810072147003020C13147003020C39240560F3
:100B910003020C3E7F967E0012114612117B8E4994
:100BA1008F4A7547012212117BAD4AAC49120003ED
:100BB100C3EF94C8EE9400400B3005047F01806DB3
:100BC10075470222309002D20630067120906ED213
:100BD100052212117BAD4AAC49120003C3EF949078
:100BE100EE94014058121175BF04047F02803E75D6
:100BF10047032212117BAD4AAC49120003C3EF94A3
:100C010058EE94024037121175BF08047F02801D0F
:100C1100802212117BAD4AAC49120003C3EF94202C
:100C2100EE94034018121175BF02097F02120CCB1A
:0E0C31007547052275470422E4F547D20422D8
:100A7B00E54814602B146056146062147003020B6B
:100A8B0011147003020B1F24056003020B707F9679
:100A9B007E0012114612117B8E458F46754801223E
:100AAB0020B4087BFF7A0E791F801C12117BAD4698
:100ABB00AC45120003C3EF9414EE94005003020BE9
:100ACB00707BFF7A0E792A12116875480222121177
:100ADB006F7548037BFF7A0E793D021168121195F1
:100AEB005003020B701211927BFF500C7A0E79524D
:100AFB00121168754804800A7A0E7962121168E443
:100B0B00F5487F02805C12117B8E458F4612116F68
:100B1B0075480522121195404C1211985023121151
:100B2B007BAD46AC45120003C3EF9464EE940040DA
:100B3B00347BFF7A0E796F1211687548047F03803E
:100B4B002112117BAD46AC45120003C3EF9490EE1E
:100B5B00940140117BFF7A0E797B12116875480462
:060B6B007F03120CCB22F7
:060837008B3E8A3F894060
:10083D00EF64026003020974751602F517F518F5D9
:10084D0019F51AF51BF51C7F40900040E4F0A3DF6D
:10085D00FC7F40900000E4F0A3DFFCAB3EAA3FA973
:10086D004012020BFF64C06008EF64406003020990
:10087D003690000A120224FED3940340037F022215
:10088D00EE700653B6FE53B5FE90000A120224B464
:10089D00010653B6FE43B50190000A120224FFB4BF
:1008AD00020643B60153B5FEEFB4030643B601434A
:1008BD00B50112020BB4C005439A808003539A7F91
:1008CD009000021203DE7F807E8D7D5B7C00120323
:1008DD001A8F448E438D428C41E4FFFE7D01FCABAB
:1008ED0044AA43A942A841C31203BA40037F02227E
:1008FD00C3E49544F544E49543F54374019542F5FD
:10090D0042E49541F541538EEF538EF7438E04AF7C
:10091D0044AE43AD42AC4178081203CB8FD685442B
:10092D00D753AFFB438E1080037F0222AB3EAA3F0D
:10093D00A940900009120224B4010543AF018003C0
:10094D0053AFFE900007120224B40105439A1080A4
:10095D0003539AEF90000B1202245401FFE5BA5491
:09096D00FE4FF5BA7F00227F0263
:01097600225E
:10105B00752240E4752780752625F525F52475291D
:10106B0001752B01F52CF52DFB7A0079227F0202FD
:02107B00083734
:03004300020D4368
:100D4300C0E0C083C082C0D075D000C007E59A3030
:100D5300E025539AFEE51C701EE51AC39440400338
:100D6300751A00AF1A051A74002FF582E43400F5E2
:100D730083E59BF0751B05E59A30E128539AFDE561
:100D8300176518601C74402517F582E43400F58359
:100D9300E0F59B0517E517C39440400875170080DD
:0F0DA30003751900D007D0D0D082D083D0E032B2
:10001E0074402518F582E43400F583EFF00518E5F9
:10002E0018C394404003E4F518E5197006751901DC
:04003E00439A0222BD
:071168008B368A378938221B
:10113500751602E4F517F518F519F51AF51BF51CE2
:011145002287
:06117500900002E0FF22E1
:061038008B368A3789386F
:10103E00E4FEEEC39D5015AB36AA37A9388E8275E5
:0C104E008300120224FF12001E0E80E638
:01105A002273
:020CCB00AE0772
:100CCD00E4FDEE70057508AA8063BE010D7508BBC5
:100CDD00750904750ABF7D038053EE640270297592
:100CED0008BB750ABF121175BF040575090880147C
:100CFD00121175BF08057509028009121175BF0221
:100D0D00037509017D038025EE64037020FE7F0EBF
:100D1D00FDFB7A00790812040E7508CC1211807C47
:100D2D00007D0A1202518F147515CF7D0E7B007A4E
:060D3D00007908021038E5
:10004600EC4D6011E8497017ED33EC3304600DE4B4
:10005600FCFFFEFD22E933E8330470F80201F612D4
:1000660001C158046009E4CC2481500628500902D5
:1000760002002840030201FDC0E0EB4A7044B9804B
:1000860006D0E0FB0201ECEF4E701CBD8008EBFFD2
:10009600EAFEE9FD80EBE98DF0A4FEE5F002012F12
:1000A600E9CDF9EAFEEBFFEF89F0A4FCE5F0CE8995
:1000B600F0A42EFFE435F0CD89F0A42DFEE435F052
:1000C6008067EF4E7005BD80D780C3EF8BF0A4AC80
:1000D600F0EE8BF0A42CFCE435F0F8EF8AF0A42CBB
:1000E600E5F038FCE433CB8DF0A42CFCE5F03BF8CE
:1000F600EE8AF0A42CFCE5F038F8E433CF89F0A4BE
:100106002CFCE5F038CF3400CE89F0A42FFFE5F0C3
:100116003EFEE433C98DF0A42EFEE5F039CD8AF01B
:10012600A42FFFE5F03EFEE43DFD33D0E0FB500793
:100136000BBB000F020200EC2CFCEF33FFEE33FE8C
:06014600ED33FD0201D8BB
:10014C0075F020800E75F010800575F0087D007E2E
:10015C00007F003392D530D5031203ACEC33401042
:10016C00EF33FFEE33FEED33FDEC33FCD5F0ED2237
:0E017C00E5F0247EA2D513CC92E7CDCEFF2273
:10018A00EDD2E7CD33EC3392D524814006E4FFFE6D
:10019A00FDFC22FCE4CFCECDCC24E0501174FF80CC
:1001AA00EDC3CC13CCCD13CDCE13CECF13CF047069
:0701BA00F030D5DE0203ACBA
:1001C100E9D2E7C933E833F892D5EDD2E7CD33EC84
:0701D10033FC5002B2D522FD
:1001D800EC30E7100FBF000C0EBE00080DBD000488
:1001E8000BEB6014A2D5EB13FCED92E7FD2274FF34
:1001F800FCFDFEFF22E480F8A2D574FF13FC7D808D
:03020800E480EFA0
:03000000020C3FB0
:0C0C3F00787FE4F6D8FD758159020C8620
:10020B00BB010689828A83E0225002E722BBFE02F1
:09021B00E32289828A83E4932224
:10022400BB010CE58229F582E5833AF583E022508F
:1002340006E92582F8E622BBFE06E92582F8E222D9
:0D024400E58229F582E5833AF583E49322F3
:10025100BC000BBE0029EF8DF084FFADF022E4CC91
:10026100F875F008EF2FFFEE33FEEC33FCEE9DEC5A
:10027100984005FCEE9DFE0FD5F0E9E4CEFD22EDA0
:10028100F8F5F0EE8420D21CFEADF075F008EF2FEA
:10029100FFED33FD4007985006D5F0F222C398FDDB
:0502A1000FD5F0EA2278
:1002A600BB0110E58229F582E5833AF583E0F5F096
:1002B600A3E0225009E92582F886F008E622BBFE73
:1002C6000AE92582F8E2F5F008E222E5832AF583B9
:0802D600E993F5F0A3E993227E
:1002DE0075F008758200EF2FFFEE33FECD33CDCCD7
:1002EE0033CCC58233C5829BED9AEC99E58298405A
:1002FE000CF582EE9BFEED9AFDEC99FC0FD5F0D637
:10030E00E4CEFBE4CDFAE4CCF9A88222B800C1B960
:10031E000059BA002DEC8BF084CFCECDFCE5F0CB9E
:10032E00F97818EF2FFFEE33FEED33FDEC33FCEBD7
:10033E0033FB10D703994004EB99FB0FD8E5E4F992
:10034E00FA227818EF2FFFEE33FEED33FDEC33FC7F
:10035E00C933C910D7059BE99A4007EC9BFCE99A73
:10036E00F90FD8E0E4C9FAE4CCFB2275F010EF2FB8
:10037E00FFEE33FEED33FDCC33CCC833C810D707B8
:10038E009BEC9AE899400AED9BFDEC9AFCE899F8F3
:0E039E000FD5F0DAE4CDFBE4CCFAE4C8F92286
:0E03AC00C3E49FFFE49EFEE49DFDE49CFC2262
:1003BA00EB9FF5F0EA9E42F0E99D42F0E89C45F099
:0103CA002210
:1003CB00E8600FECC313FCED13FDEE13FEEF13FF10
:0303DB00D8F12234
:1003DE00BB010DE58229F582E5833AF583020447D8
:1003EE005007E92582F802043ABBFE07E92582F898
:1003FE00020453E58229F582E5833AF5830204600F
:10040E00EF4E6012EF60010EEDBB010B89828A8305
:10041E00F0A3DFFCDEFA2289F05007F709DFFCA912
:0C042E00F022BBFEFCF309DFFCA9F02269
:100C4B000210BAE493A3F8E493A34003F68001F2F5
:100C5B0008DFF48029E493A3F85407240CC8C333AA
:100C6B00C4540F4420C8834004F456800146F6DF79
:100C7B00E4800B0102040810204080900F4CE47EAE
:100C8B00019360BCA3FF543F30E509541FFEE4936E
:100C9B00A360010ECF54C025E060A840B8E493A335
:100CAB00FAE493A3F8E493A3C8C582C8CAC583CA60
:100CBB00F0A3C8C582C8CAC583CADFE9DEE780BE18
:010FA500004B
:0D043A00E6FB08E6F908E6FA08E6CBF82232
:0C044700E0F8A3E0F9A3E0FAA3E0FB2238
:0D045300E2FB08E2F908E2FA08E2CBF82229
:10046000E493F8740193F9740293FA740393FB22F2
:00000001FF
