:0414D30002590000BA
:1017B3007527FFE4F526FB7A0079267F0112058C55
:1017C3007527017526017B007A0079267F011205B2
:1017D3008C7527FFE4F526FB7A0079267F03120533
:1017E3008C7527107526017B007A0079267F0312FA
:1017F300058C7527247526037B007A0079267F03E1
:0518030012058CC2B2C9
:0118080022BD
:1018EA00E4F526752701F528F529F52A752BFE75E5
:1018FA002CD4752D01FB7A007926FF120A50E4F5E3
:10190A0026F527752801F529F52A752BE8752C90F7
:0D191A00752D01FB7A0079267F01120A501D
:01192700229D
:101AC800752601E4F527752803FB7A007926121993
:011AD80028E5
:011AD90022EA
:1019EA001217B31218EA121AC8D2AF120CA31211A4
:1019FA00301218A512154E12169712101E1212271F
:061A0A00121B1B80E62206
:10058C008F288B298A2A892BE528D3940740037F4F
:10059C000122AB29AA2AA92B120301D394034003ED
:1005AC007F0222E5286003020641AB29AA2AA92B67
:1005BC00120301701890000112031AF45293AB2924
:1005CC00AA2AA92B90000112031AF45294AB29AA5F
:1005DC002AA92B120301B4011790000112031A422D
:1005EC0093AB29AA2AA92B90000112031AF4529456
:1005FC00AB29AA2AA92B120301B4021690000112EE
:10060C00031A4293AB29AA2AA92B90000112031AB0
:10061C004294AB29AA2AA92B120301B40317900008
:10062C000112031AF45293AB29AA2AA92B900001A8
:10063C0012031A4294E528640160030206D5AB2923
:10064C00AA2AA92B120301701890000112031AF4A4
:10065C005291AB29AA2AA92B90000112031AF45229
:10066C0092AB29AA2AA92B120301B40117900001FD
:10067C0012031A4291AB29AA2AA92B90000112034A
:10068C001AF45292AB29AA2AA92B120301B402160E
:10069C0090000112031A4291AB29AA2AA92B9000AF
:1006AC000112031A4292AB29AA2AA92B120301B4F4
:1006BC00031790000112031AF45291AB29AA2AA92C
:1006CC002B90000112031A4292E528640260030287
:1006DC000769AB29AA2AA92B1203017018900001F3
:1006EC0012031AF45295AB29AA2AA92B90000112D5
:1006FC00031AF45296AB29AA2AA92B120301B401AE
:10070C001790000112031A4295AB29AA2AA92B9023
:10071C00000112031AF45296AB29AA2AA92B120330
:10072C0001B4021690000112031A4295AB29AA2AB1
:10073C00A92B90000112031A4296AB29AA2AA92BC5
:10074C00120301B4031790000112031AF45295AB73
:10075C0029AA2AA92B90000112031A4296E52864B3
:10076C000360030207FDAB29AA2AA92B120301700F
:10077C001890000112031AF452B1AB29AA2AA92B22
:10078C0090000112031AF452B2AB29AA2AA92B1217
:10079C000301B4011790000112031A42B1AB29AA4C
:1007AC002AA92B90000112031AF452B2AB29AA2ADF
:1007BC00A92B120301B4021690000112031A42B1C4
:1007CC00AB29AA2AA92B90000112031A42B2AB2919
:1007DC00AA2AA92B120301B4031790000112031AC1
:1007EC00F452B1AB29AA2AA92B90000112031A4288
:1007FC00B2E52864046003020891AB29AA2AA92B4C
:10080C00120301701890000112031AF452B3AB29B1
:10081C00AA2AA92B90000112031AF452B4AB29AAEC
:10082C002AA92B120301B4011790000112031A42DA
:10083C00B3AB29AA2AA92B90000112031AF452B4C3
:10084C00AB29AA2AA92B120301B40216900001129B
:10085C00031A42B3AB29AA2AA92B90000112031A3E
:10086C0042B4AB29AA2AA92B120301B40317900096
:10087C000112031AF452B3AB29AA2AA92B90000136
:10088C0012031A42B4E52864056003020925AB295A
:10089C00AA2AA92B120301701890000112031AF452
:1008AC0052C9AB29AA2AA92B90000112031AF4529F
:1008BC00CAAB29AA2AA92B120301B4011790000173
:1008CC0012031A42C9AB29AA2AA92B9000011203C0
:1008DC001AF452CAAB29AA2AA92B120301B4021684
:1008EC0090000112031A42C9AB29AA2AA92B900025
:1008FC000112031A42CAAB29AA2AA92B120301B46A
:10090C00031790000112031AF452C9AB29AA2AA9A1
:10091C002B90000112031A42CAE5286406600302F8
:10092C0009B9AB29AA2AA92B12030170189000014E
:10093C0012031AF452CBAB29AA2AA92B900001124C
:10094C00031AF452CCAB29AA2AA92B120301B40125
:10095C001790000112031A42CBAB29AA2AA92B909B
:10096C00000112031AF452CCAB29AA2AA92B1203A8
:10097C0001B4021690000112031A42CBAB29AA2A29
:10098C00A92B90000112031A42CCAB29AA2AA92B3D
:10099C00120301B4031790000112031AF452CBABEB
:1009AC0029AA2AA92B90000112031A42CCE528642B
:1009BC00076003020A4DAB29AA2AA92B1203017066
:1009CC001890000112031AF452E1AB29AA2AA92BA0
:1009DC0090000112031AF452E2AB29AA2AA92B1295
:1009EC000301B4011790000112031A42E1AB29AACA
:1009FC002AA92B90000112031AF452E2AB29AA2A5D
:100A0C00A92B120301B4021690000112031A42E141
:100A1C00AB29AA2AA92B90000112031A42E2AB2996
:100A2C00AA2AA92B120301B4031790000112031A6E
:100A3C00F452E1AB29AA2AA92B90000112031A4205
:040A4C00E27F002223
:101928008B298A2A892B120301B4010375C120ABC4
:1019380029AA2AA92B90000212031A5407FFE5C10D
:1019480054F84FF5C1AB29AA2AA92B90000112031C
:0B1958001A700453C1F72243C108229B
:041B1B0043C1102290
:1014D700C10AC109C108011D0002190000011E004F
:0814E70002170000021B0000C7
:10001E00E51E120504002D0000330100000041D240
:10002E00B6751E0122E51DD394184005C20AC2A959
:04003E0022B2B62212
:0A1AFC00D20AE4F51DF51ED2A9225E
:031B1F00A20A22F5
:05000E00AE19AF1A223B
:05001600AE1BAF1C222F
:051B0C00AE17AF182226
:101A74008E268F278C288D29C3E5279529FFE526F7
:081A84009528FEE4EFEEE422D8
:03000B0002199B3C
:10199B00C0E0C083C082C0D075D000C000051AE57E
:1019AB001A70020519300A05051D12001ED000D051
:0819BB00D0D082D083D0E032CD
:03001B0002175B6E
:10175B00C0E0C0F0C083C082C0D075D000C000C054
:10176B0001C002C003C004C005C006C007051CE5CC
:10177B001C7002051B200913D2090518E51870020D
:10178B000517121B225006B2B58002C209D007D032
:10179B0006D005D004D003D002D001D000D0D0D0D9
:0817AB0082D083D0F0D0E032BF
:100A50008F2E8B2F8A308931E52E6003020B78C2EE
:100A60008C90000212031AB40104D2A98002C2A918
:100A7000AB2FAA30A93190000112031AD39403407E
:100A8000037F0222AB2FAA30A93190000112031A72
:100A9000700553B7FDC2B9AB2FAA30A93190000140
:100AA00012031AB4010553B7FDD2B9AB2FAA30A96E
:100AB0003190000112031AB4020543B702C2B9AB68
:100AC0002FAA30A93190000112031AB4030543B7CD
:100AD00002D2B9AB2FAA30A931120301C39403404B
:100AE000037F0222AB2FAA30A931120301FFE5894F
:100AF00054CF4FF589AB2FAA30A9319000031203D0
:100B00001AB40103538E7FAB2FAA30A93190000392
:100B100012031A7003438E80AB2FAA30A9319000C4
:100B20000312031AB4020543890480035389FBAB03
:100B30002FAA30A93190000412031AB40105438F83
:100B4000018003538FFEAB2FAA30A931900005120C
:100B5000039CE5F0F58CAB2FAA30A931900005126B
:100B6000039CF58AAB2FAA30A93190000712031A13
:100B7000B40102D28C7F0022E52E64016003020CD6
:100B8000A0C28EAB2FAA30A93190000212031AB472
:100B90000104D2AB8002C2ABAB2FAA30A9319000C6
:100BA0000112031AD3940340037F0222AB2FAA3011
:100BB000A93190000112031A700553B7F7C2BBABFD
:100BC0002FAA30A93190000112031AB4010553B7BE
:100BD000F7D2BBAB2FAA30A93190000112031AB48F
:100BE000020543B708C2BBAB2FAA30A93190000160
:100BF00012031AB4030543B708D2BBAB2FAA30A91E
:100C000031120301C3940340037F0222AB2FAA30A9
:100C1000A931120301FFE58954CF4FF589AB2FAA03
:100C200030A93190000312031AB40103538EBFABF5
:100C30002FAA30A93190000312031A7003438E408B
:100C4000AB2FAA30A93190000312031AB402054356
:100C5000894080035389BFAB2FAA30A9319000048B
:100C600012031AB40105438F028003538FFDAB2F8B
:100C7000AA30A93190000512039CE5F0F58DAB2F49
:100C8000AA30A93190000512039CF58BAB2FAA3036
:100C9000A93190000712031AB40102D28E7F0022FC
:030CA0007F0222AE
:0414EF00C10BC10C60
:031B2200A20C22F0
:101A58008E268F278D28E4F549E52725E0F54CE506
:0C1A68002633F54B85284AD20CD20B2205
:051B1100C20BC20C2212
:10169700300B61E54912050416AC0016B90116DADC
:1016A70002000016FBD20C121B0C8E4D8F4E754993
:1016B7000122121B0CAD4EAC4D121A74C3EF954CA0
:1016C700EE954B402FC20CE54A6004121B112275A0
:1016D700490222121B0CAD4EAC4D121A74AC06AD6A
:1016E70007E54C25E0FFE54B33FEC3ED9FEC9E403D
:0516F70003E4F54922A7
:0B14F300C10F014F000450000000007A
:101AA100752801752601E4F527FB7A0079267F0167
:031AB1001213AA63
:011AB400220F
:101AB500121AA1D20FE4F54FF553F552F551F55031
:031AC500D2A92281
:101ADA00C20FE4F54FF553F552F551F550C2AAC2BB
:021AEA00A9222F
:031B2500A20F22EA
:030013000215BE15
:1015BE00C0E0C0F0C083C082C0D075D000C000C0F3
:1015CE0001C002C003C004C005C006C007300F3200
:1015DE0012000EAC52AD53121A74D3EF9405EE9462
:1015EE00005010054FE54FC39403400AC20F121A64
:1015FE00DA8003754F0012000EE48F538E52F551B0
:10160E00F550D007D006D005D004D003D002D001BB
:0D161E00D000D0D0D082D083D0F0D0E03208
:1013AA008F298B2A8A2B892CE52964016003021470
:1013BA0044C28B90000212031AB40104D2AA80021A
:1013CA00C2AAAB2AAA2BA92C90000112031AD39401
:1013DA000340037F0222AB2AAA2BA92C90000112F8
:1013EA00031A700553B7FBC2BAAB2AAA2BA92C90D1
:1013FA00000112031AB4010553B7FBD2BAAB2AAAE9
:10140A002BA92C90000112031AB4020543B704C297
:10141A00BAAB2AAA2BA92C90000112031AB403050D
:10142A0043B704D2BAAB2AAA2BA92C120301B401DE
:0D143A0004D28A8002C28A7F00227F022233
:1014FE00C101C102C103C100015400025500000226
:03150E0057000083
:051B1600AE57AF58229C
:031B2800A20222F4
:031B2B00A20122F2
:031B2E00A20322ED
:061B0600D201E4F55422B7
:10101E0020010302112FE55412050410390010545B
:10102E000110830210BF030000112F121B37500353
:10103E0002112F1200168E558F56121AFCE4F55718
:10104E00F55875540122121B1F500302112F200058
:10105E0007121AB575540222120016AD56AC55126F
:10106E001A74C3EF9406EE9400500302112F121A55
:10107E00B575540322121B254010D200D202E4FD96
:10108E007FF47E01121A58C20122120016AD56AC20
:10109E0055121A74C3EF94A0EE9400500302112F50
:1010AE00C202E4FD7FD07E07121A58C201121ADA6C
:1010BE0022121B25404B120016AD56AC55121A7457
:1010CE00AC06AD07E4120151E4FBFA792A7842121C
:1010DE00004612018A8E578F58C3E55894FAE55789
:1010EE0094005007E4F557F5588011D3E55894F65F
:1010FE00E557940940067557097558F6D203C20193
:10110E0022120016AD56AC55121A74C3EF94A0EE0F
:10111E009400400DC203C2017557007558A0121AF3
:02112E00DA22C3
:10162B0072656376204944210D0A0072656376204A
:10163B0049442074696D656F7574210D0A007365DB
:10164B006E736F722073656C6620636865636B21C4
:10165B000D0A0073656E736F72206973206F6B21B7
:10166B000D0A004E6F2073656E736F72210D0A00A9
:10167B006F62737461636C65210D0A004E6F206F8E
:0C168B0062737461636C6573210D0A00CA
:10151100C107C106C104C105040F00000000010E8E
:101521000002140000010B00010A0001130002086F
:091531000000011600020C00008C
:031B3100AF0A22D6
:100CA300300703020E7AE50E1205040CD6000CE39E
:100CB300010D01020D1D030D6B040D86050DC2060A
:100CC3000DD3070E0C080E1E090E540A0E750C00E8
:100CD300000E7AD2B5121B0C8E148F15750E0122DD
:100CE300121B0CAD15AC14121A74C3EF9414EE94CA
:100CF300005003020E7AA2B49204750E0222121B54
:100D03000CAD15AC14121A74C3EF9432EE94005068
:100D130003020E7AC2B5750E0322121B0CAD15AC7D
:100D230014121A74C3EF9464EE94005003020E7A03
:100D3300A2B4920520B412A205300401B340057594
:100D43000A01801D750A028018A205300401B34010
:100D530005E4F50A800B209005750A028003750AE5
:100D630003750E041219C322E50AB40312E4FD7FCE
:100D730002121A36750E05121B0C8E148F1522756E
:100D83000E0A22121B0CAD15AC14121A74C3EF9485
:100D930032EE94005003020E7A121302EF600A75CA
:100DA3001101E4F50B750E0622050B750E04E50B18
:100DB300C394035003020E7AE4F50B750E0622E486
:100DC300FDFF121A36750E07121B0C8E148F152297
:100DD300121B0CAD15AC14121A74C3EF9432EE94BB
:100DE300005003020E7A121302EF600A750F01E43A
:100DF300F50B750E0822050B750E06E50BC3940360
:100E03004075E4F50B750E0822E4FD7F01121A36D6
:100E1300750E09121B0C8E148F1522121B0CAD15A7
:100E2300AC14121A74C3EF9432EE940040491213B7
:100E330002EF600A751001E4F50B750E0C22050B29
:100E4300750E08E50BC39403402DE4F50B750E0CEA
:100E530022121B0CAD15AC14121A74C3EF9458EE86
:100E630094024004750E0C22121302EF6009750EF2
:080E73000C22E4F50ED2072267
:10113000200703021226E513120504115100116461
:101140000111970211A70311CB0411D90500001258
:1011500026E4FD7F96FE121A58121B0C8E088F098A
:101160007513012220B40D7BFF7A16792B12000330
:1011700075130222121B0CAD09AC08121A74C3EFCE
:101180009414EE940050030212267BFF7A167936EF
:1011900012000375130222121B067513037BFF7ADC
:1011A00016794912000322121B2B407A121B285079
:1011B0000D7BFF7A16795E120003751304227BFF04
:1011C0007A16796E120003E4F51322121B0C8E08B6
:1011D0008F09121B0675130522121B2B4048121B88
:1011E0002E5022121B0CAD09AC08121A74C3EF94D6
:1011F00064EE940040307BFF7A16797B1200037511
:101200001304D20622121B0CAD09AC08121A74C3C7
:10121000EF9490EE9401400E7BFF7A1679871200CE
:0712200003751304D206223E
:10122700200603021301E516120504124E00126987
:101237000112860212980312B20412C40512DE06C6
:1012470012F80700001301E50AB403127D017F02BB
:10125700121A36751601121B0C8E0C8F0D2275167D
:101267000722121B0CAD0DAC0C121A74C3EF942895
:10127700EE94005003021301121302751602227D29
:1012870001E4FF121A36751603121B0C8E0C8F0D14
:1012970022121B0CAD0DAC0C121A74C3EF9428EE7E
:1012A70094004056121302751604227D017F011225
:1012B7001A36751605121B0C8E0C8F0D22121B0C7D
:1012C700AD0DAC0C121A74C3EF9428EE9400402AAB
:1012D70012130275160622121B0CAD0DAC0C121A56
:1012E70074C3EF9428EE940040101216FCE4F51630
:0B12F70022121302EF6003E4F5162240
:10153A00014200014300014800C10DC10E044400EC
:03154A000000009E
:080E7B008F328B338A34893574
:100E8300E5326402600302101B753B02F53CF53D3D
:100E9300F53EF53FF540F541F536E536C394205070
:100EA30011742E2536F582E43400F583E4F005361B
:100EB30080E8E4F536E536C394205011740E2536E8
:100EC300F582E43400F583E4F0053680E8AB33AA19
:100ED30034A93512030164C0600A1203016440603F
:100EE30003020FD1AB33AA34A93590000A12031AB7
:100EF300D3940340037F0222AB33AA34A935900075
:100F03000A12031A700653B6FE53B5FEAB33AA3466
:100F1300A93590000A12031AB4010653B6FE43B56D
:100F230001AB33AA34A93590000A12031AB402069E
:100F330043B60153B5FEAB33AA34A93590000A1268
:100F4300031AB4030643B60143B501AB33AA34A96C
:100F530035120301B4C005439A808003539A7FABD3
:100F630033AA34A9359000021204D47F807E8D7D8C
:100F73005B7C001204108F3A8E398D388C37E4FF76
:100F8300FE7D01FCAB3AAA39A938A837C31204B0D5
:100F930040037F0222C3E4953AF53AE49539F539E3
:100FA30074019538F538E49537F537538EEF538E42
:100FB300F7438E04AF3AAE39AD38AC377808120434
:100FC300C18FD6853AD753AFFB438E1080037F0280
:100FD30022AB33AA34A93590000912031AB40105D0
:100FE30043AF01800353AFFEAB33AA34A93590005E
:100FF3000712031AB40105439A108003539AEFAB07
:1010030033AA34A93590000B12031A5401FFE5BA31
:0A10130054FE4FF5BA7F00227F0261
:01101D0022B0
:0300430002185B45
:10185B00C0E0C083C082C0D075D000C007E59A300D
:10186B00E022539AFEE541701BE53FC394204003F1
:10187B00753F00AF3F053F740E2FF582E43400F542
:10188B0083E59BF0E59A30E106539AFD753E00D057
:0A189B0007D0D0D082D083D0E03215
:101AEC008F27E53E70FC753E0185279B539AFD229E
:070003008B268A27892822C1
:1019C300752640752B00752AC27529017528007587
:1019D3002D01752F01E4F530F531FB7A0079267F6F
:0619E30002120E7BC2B2ED
:0119E90022DB
:101A8C00C20DE4F53FF541FE7F20FD7B017A007924
:051A9C000E12052A22D4
:10154E00E4F526E53F6068200D28740D253FF582F1
:10155E00E43400F583E064BB6010740D253FF58222
:10156E00E43400F583E064EE7045E53F14F543D2B4
:10157E000D22740D253FF582E43400F583E064BF3F
:10158E00702D853F48C3E5489543F526C3E548953C
:10159E0043FFE49400FE740E2543F9E43400FA7B15
:0F15AE0001784E7C007D011202DBC20D754101F8
:0115BD00220B
:031B3400AF41229C
:031B3700A20E22D9
:0518A500121B1F403F73
:1018AA00E4F526E53D6038D20E121A8CD2B2000059
:1018BA000000E4F526E526C3953D5014742E25262E
:1018CA00F582E43400F583E0FF121AEC052680E580
:0F18DA00E53E70FC00000000E4F53DC2B2C20E16
:0118E90022DC
:101A10008B2A8A2B892C8D2DE4F53DE52D6016AFA0
:101A20002D7E00AB2AAA2BA92C782E7C007D0112DA
:061A300002DB852D3D22C2
:021963008F26CD
:10196500E526D394C840057527058027E526D39439
:101975009B4005752704801BE526D3946E400575AD
:101985002703800FE526D3943C4005752702800385
:05199500752701AF27DA
:01199A00222A
:1016FC0090000074AAF0A37404F0AF44121963A311
:10170C00EFF0A3E544F0AF45121963A3EFF0A3E5A6
:10171C0045F0AF46121963A3EFF0A3E546F0121B98
:10172C00167C007D0A120347121963900008EFF033
:10173C00121B167C007D0A120347900009EFF0A3E0
:0F174C0074AFF07B017A0079007D0B121A102226
:041809008F278D2870
:10180D00E4F529E528701790000074EEF0A3E528A3
:10181D00F0A3E527F0A374BFF07529048024900090
:10182D000074EEF0A3E528F0A3E527F0121B167C5B
:10183D00007D0A120347900003EFF0A374BFF0750B
:0D184D0029057B017A007900AD29121A10DF
:01185A00226B
:101A36008F268D2790000074BBF0A3E527F0A3E561
:101A460026F0A374BFF07B017A0079007D04121A98
:021A560010225C
:10130200E4F526121B34EF7002FF22E4F541121BB2
:1013120031EF6403705990004FE07023A3E0700630
:101322007526010213A7900050E0B401057526014D
:101332008073900050E06402706B752601806690A5
:101342000050E07009A3E0F5447526018057900033
:1013520050E0B40109A3E0F54575260180479000ED
:1013620050E06402703FA3E0F54675260180369096
:10137200004FE07019121B31900050E06F7026E0B0
:10138200FF90004FE0FD1218097526018017121B0D
:1013920031900050E0B5070DE0FF90004FE0FD12E4
:0713A2001809752601AF26B2
:0113A9002221
:10004600EC4D6011E8497017ED33EC3304600DE4B4
:10005600FCFFFEFD22E933E8330470F80201F612D4
:1000660001C158046009E4CC2481500628500902D5
:1000760002002840030201FDC0E0EB4A7044B9804B
:1000860006D0E0FB0201ECEF4E701CBD8008EBFFD2
:10009600EAFEE9FD80EBE98DF0A4FEE5F002012F12
:1000A600E9CDF9EAFEEBFFEF89F0A4FCE5F0CE8995
:1000B600F0A42EFFE435F0CD89F0A42DFEE435F052
:1000C6008067EF4E7005BD80D780C3EF8BF0A4AC80
:1000D600F0EE8BF0A42CFCE435F0F8EF8AF0A42CBB
:1000E600E5F038FCE433CB8DF0A42CFCE5F03BF8CE
:1000F600EE8AF0A42CFCE5F038F8E433CF89F0A4BE
:100106002CFCE5F038CF3400CE89F0A42FFFE5F0C3
:100116003EFEE433C98DF0A42EFEE5F039CD8AF01B
:10012600A42FFFE5F03EFEE43DFD33D0E0FB500793
:100136000BBB000F020200EC2CFCEF33FFEE33FE8C
:06014600ED33FD0201D8BB
:10014C0075F020800E75F010800575F0087D007E2E
:10015C00007F003392D530D5031204A2EC3340104B
:10016C00EF33FFEE33FEED33FDEC33FCD5F0ED2237
:0E017C00E5F0247EA2D513CC92E7CDCEFF2273
:10018A00EDD2E7CD33EC3392D524814006E4FFFE6D
:10019A00FDFC22FCE4CFCECDCC24E0501174FF80CC
:1001AA00EDC3CC13CCCD13CDCE13CECF13CF047069
:0701BA00F030D5DE0204A2C3
:1001C100E9D2E7C933E833F892D5EDD2E7CD33EC84
:0701D10033FC5002B2D522FD
:1001D800EC30E7100FBF000C0EBE00080DBD000488
:1001E8000BEB6014A2D5EB13FCED92E7FD2274FF34
:1001F800FCFDFEFF22E480F8A2D574FF13FC7D808D
:03020800E480EFA0
:03000000021447A0
:0C144700787FE4F6D8FD75815A02148EFF
:10020B00E709F608DFFA8046E709F208DFFA803ED5
:10021B0088828C83E709F0A3DFFA8032E309F608C2
:10022B00DFFA8078E309F208DFFA807088828C832A
:10023B00E309F0A3DFFA806489828A83E0A3F608DE
:10024B00DFFA805889828A83E0A3F208DFFA804CB8
:10025B0080D280FA80C680D4806980F2803380108F
:10026B0080A680EA809A80A880DA80E280CA8033F8
:10027B0089828A83ECFAE493A3C8C582C8CCC58370
:10028B00CCF0A3C8C582C8CCC583CCDFE9DEE78040
:10029B000D89828A83E493A3F608DFF9ECFAA9F0BF
:1002AB00EDFB2289828A83ECFAE0A3C8C582C8CC15
:1002BB00C583CCF0A3C8C582C8CCC583CCDFEADE2E
:1002CB00E880DB89828A83E493A3F208DFF980CC90
:1002DB0088F0EF60010E4E60C388F0ED2402B40489
:1002EB000050B9F582EB2402B4040050AF23234530
:0602FB00822390025B73F8
:10030100BB010689828A83E0225002E722BBFE02FA
:09031100E32289828A83E493222D
:10031A00BB010CE58229F582E5833AF583E0225098
:10032A0006E92582F8E622BBFE06E92582F8E222E2
:0D033A00E58229F582E5833AF583E49322FC
:10034700BC000BBE0029EF8DF084FFADF022E4CC9A
:10035700F875F008EF2FFFEE33FEEC33FCEE9DEC63
:10036700984005FCEE9DFE0FD5F0E9E4CEFD22EDA9
:10037700F8F5F0EE8420D21CFEADF075F008EF2FF3
:10038700FFED33FD4007985006D5F0F222C398FDE4
:050397000FD5F0EA2281
:10039C00BB0110E58229F582E5833AF583E0F5F09F
:1003AC00A3E0225009E92582F886F008E622BBFE7C
:1003BC000AE92582F8E2F5F008E222E5832AF583C2
:0803CC00E993F5F0A3E9932287
:1003D40075F008758200EF2FFFEE33FECD33CDCCE0
:1003E40033CCC58233C5829BED9AEC99E582984063
:1003F4000CF582EE9BFEED9AFDEC99FC0FD5F0D640
:10040400E4CEFBE4CDFAE4CCF9A88222B800C1B969
:100414000059BA002DEC8BF084CFCECDFCE5F0CBA7
:10042400F97818EF2FFFEE33FEED33FDEC33FCEBE0
:1004340033FB10D703994004EB99FB0FD8E5E4F99B
:10044400FA227818EF2FFFEE33FEED33FDEC33FC88
:10045400C933C910D7059BE99A4007EC9BFCE99A7C
:10046400F90FD8E0E4C9FAE4CCFB2275F010EF2FC1
:10047400FFEE33FEED33FDCC33CCC833C810D707C1
:100484009BEC9AE899400AED9BFDEC9AFCE899F8FC
:0E0494000FD5F0DAE4CDFBE4CCFAE4C8F9228F
:0E04A200C3E49FFFE49EFEE49DFDE49CFC226B
:1004B000EB9FF5F0EA9E42F0E99D42F0E89C45F0A2
:0104C0002219
:1004C100E8600FECC313FCED13FDEE13FEEF13FF19
:0304D100D8F1223D
:1004D400BB010DE58229F582E5833AF583020563C4
:1004E4005007E92582F8020556BBFE07E92582F884
:1004F40002056FE58229F582E5833AF58302057CDE
:10050400D083D082F8E4937012740193700DA3A386
:1005140093F8740193F5828883E47374029368609A
:06052400EFA3A3A380DF9A
:10052A00EF4E6012EF60010EEDBB010B89828A83E8
:10053A00F0A3DFFCDEFA2289F05007F709DFFCA9F5
:0C054A00F022BBFEFCF309DFFCA9F0224C
:101453000219EAE493A3F8E493A34003F68001F2AC
:1014630008DFF48029E493A3F85407240CC8C3339A
:10147300C4540F4420C8834004F456800146F6DF69
:10148300E4800B01020408102040809014D3E47E12
:10149300019360BCA3FF543F30E509541FFEE4935E
:1014A300A360010ECF54C025E060A840B8E493A325
:1014B300FAE493A3F8E493A3C8C582C8CAC583CA50
:1014C300F0A3C8C582C8CAC583CADFE9DEE780BE08
:01154D00009D
:0D055600E6FB08E6F908E6FA08E6CBF82215
:0C056300E0F8A3E0F9A3E0FAA3E0FB221B
:0D056F00E2FB08E2F908E2FA08E2CBF8220C
:10057C00E493F8740193F9740293FA740393FB22D5
:00000001FF
