:0407F800022B0000D0
:1009D10012000E8E2B8F2C12000EAD2CAC2B120A96
:0B09E10057D3EF9410EE940040ED227D
:100A290053544338205541525432204F4B210D0A1B
:010A390000BC
:100991007509FFE4F508FB7A0079087F0112001E52
:1009A1007509FFE4F508FB7A0079087F0302001E50
:010A80002253
:10088800E4F508F509750A01F50BF50C750DFF750A
:100898000E6A750F01FB7A007908FF120272E4F5FF
:1008A80008F509750A01F50BF50C750DE8750E903C
:0D08B800750F01FB7A0079087F01020272C2
:100A0500750A01750801E4F509FB7A0079087F018B
:030A150002079342
:100A1800750801E4F509750A03FB7A0079080209EB
:010A28001DB0
:10094600120991120A80120888120A18120A05D290
:10095600AF7BFF7A0A792912096E1203E51208C5E0
:080966001204BF120A6A80F2BC
:10001E00EFD3940740037F0122120598FED3940379
:10002E0040037F0222EF7041EE700B90000112052B
:10003E00B1F452935294120598B4010B9000011230
:10004E0005B14293F45294120598FEB4020A900040
:10005E00011205B142934294EEB4030D90000112C9
:10006E0005B1FEF45293EE4294EF64017043120513
:10007E0098FE700B9000011205B1F452915292EE5F
:10008E00B4010B9000011205B14291F45292120587
:10009E0098B4020A9000011205B1429142921205E3
:1000AE0098B4030D9000011205B1FEF45291EE4288
:1000BE0092EF64027043120598FE700B90000112CD
:1000CE0005B1F452955296EEB4010B900001120553
:1000DE00B14295F45296120598B4020A900001129C
:1000EE0005B142954296120598B4030D9000011287
:1000FE0005B1FEF45295EE4296EF6403704312057D
:10010E0098FE700B9000011205B1F452B152B2EE8E
:10011E00B4010B9000011205B142B1F452B21205B6
:10012E0098B4020A9000011205B142B142B2120512
:10013E0098B4030D9000011205B1FEF452B1EE42D7
:10014E00B2EF64047043120598FE700B900001121A
:10015E0005B1F452B352B4EEB4010B900001120586
:10016E00B142B3F452B4120598B4020A90000112CF
:10017E0005B142B342B4120598B4030D90000112BA
:10018E0005B1FEF452B3EE42B4EF640570431205AE
:10019E0098FE700B9000011205B1F452C952CAEECE
:1001AE00B4010B9000011205B142C9F452CA1205F6
:1001BE0098B4020A9000011205B142C942CA120552
:1001CE0098B4030D9000011205B1FEF452C9EE422F
:1001DE00CAEF64067043120598FE700B9000011270
:1001EE0005B1F452CB52CCEEB4010B9000011205C6
:1001FE00B142CBF452CC120598B4020A900001120F
:10020E0005B142CB42CC120598B4030D90000112F9
:10021E0005B1FEF452CBEE42CCEF640770431205EB
:10022E0098FF700B9000011205B1F452E152E2EF0B
:10023E00B4010B9000011205B142E1F452E2120535
:10024E0098B4020A9000011205B142E142E2120591
:10025E0098B4030D9000011205B1FFF452E1EF4284
:04026E00E27F002209
:10091D00120598B4010375C1209000021205B1545F
:10092D0007FFE5C154F84FF5C19000011205B170F4
:09093D000453C1F72243C1082252
:040A6A0043C1102252
:1007FC00C103011B0002190000011C0002170000BC
:1009B100E51C146009047017D2B6751C0122E51BF1
:1009C100D394184008E4F51BC203F51C22B2B622E9
:03000B000209ECFB
:1009EC00C0E0C0D0051AE51A7002051930030505E0
:0909FC001B1209B1D0D0D0E03289
:08000300D203E4F51BF51C22F9
:030A6E00A20322BE
:05000E00AE19AF1A223B
:03001B0002084197
:10084100C0E0C0F0C083C082C0D075D000C000C07D
:1008510001C002C003C004C005C006C0070518E5F9
:100861001870020517120A715002B2B5D007D006EE
:10087100D005D004D003D002D001D000D0D0D08296
:07088100D083D0F0D0E0327B
:05001600AE17AF182237
:080A5700C3EF9DFFEE9CFE229F
:10027200AD07ED600302032BC28C9000021205B1A0
:10028200B40104D2A98002C2A99000011205B1FEF4
:10029200D3940340037F0222EE700553B7FDC2B927
:1002A2009000011205B1B4010553B7FDD2B9900017
:1002B200011205B1FFB4020543B702C2B9EFB4039C
:1002C2000543B702D2B9120598FEC3940340037FD7
:1002D2000222E58954CF4EF5899000031205B1FF41
:1002E200B40103538E7FEF7003438E80EFB4020597
:1002F20043890480035389FB9000041205B1B401C1
:1003020005438F018003538FFE9000051205F0E52F
:10031200F0F58C9000051205F0F58A9000071205A1
:10032200B1B40102D28C7F0022ED640160030203AA
:10033200E2C28E9000021205B1B40104D2AB800277
:10034200C2AB9000011205B1FED3940340037F02B9
:1003520022EE700553B7F7C2BB9000011205B1B48B
:10036200010553B7F7D2BB9000011205B1FFB402E9
:100372000543B708C2BBEFB4030543B708D2BB12AB
:100382000598FEC3940340037F0222E58954CF4EB1
:10039200F5899000031205B1FFB40103538EBFEF3C
:1003A2007003438E40EFB4020543894080035389B2
:1003B200BF9000041205B1B40105438F02800353BC
:1003C2008FFD9000051205F0FDACF0ECF58DAF0548
:1003D2008F8B9000071205B1B40102D28E7F0022EA
:0303E2007F022275
:0D080C00C1040125000223000002210000AC
:030A7100A20422BA
:0F0A3A00E4F525EF25E0F524EE33F523D2042271
:1008C500300428E52514600E0470201200168E21D0
:1008D5008F2275250122120016AD22AC21120A576E
:0C08E500C3EF9524EE95234002C20422CC
:0B081900C105012600042700000000BC
:0E0A4900D205E4F526F52AF529F528F5272231
:030A7400A20522B6
:03001300020729B8
:10072900C0E0C0F0C083C082C0D075D000C000C096
:1007390001C002C003C004C005C006C00730052FB0
:1007490012000EAC29AD2A120A57D3EF9404EE9485
:1007590000500D0526E526C394034007C205800312
:1007690075260012000EE48F2A8E29F528F527D068
:1007790007D006D005D004D003D002D001D000D0D4
:0A078900D0D082D083D0F0D0E0324F
:10079300EF6401705DC28B9000021205B1B40104D5
:1007A300D2AA8002C2AA9000011205B1FED394031B
:1007B30040037F0222EE700553B7FBC2BA900001DB
:1007C3001205B1B4010553B7FBD2BA90000112056B
:1007D300B1FFB4020543B704C2BAEFB4030543B78C
:1007E30004D2BA120598B40104D28A8002C28A7F65
:0507F30000227F02223C
:10082400C100C101C1020211000001100002130045
:050834000002150000A8
:050A6500AE15AF1622E2
:030A7700A20122B7
:030A7A00A20022B5
:030A7D00A20222B0
:060A5F00D200E4F51022B4
:1004BF00200003020597E51014601714604D1470A7
:1004CF000302055124036003020597120003751000
:1004DF000122120A6E500302059712000E8E138F1F
:1004EF0014E51245117007120A4975100222120005
:1004FF000EAD14AC13120A57C3EF9460EE94005074
:10050F0003020597120A4975100322120A74400E4E
:10051F00751100751201D2017FF47E01801E120049
:10052F000EAD14AC13120A57C3EF9450EE94004063
:10053F0057C201E4F515F5167FD07E07120A3AC2AD
:10054F000022120A74402A12000EAD14AC13120AC4
:10055F00577C357D201205DE8E158F16C3E5169458
:10056F00FAE51594005005E4F515F516D202C20010
:10057F0022120016AD14AC13120A57C3EF94A0EE5B
:09058F00940F4004C202C20022D4
:1006B40072656376204944210D0A007265637620D1
:1006C40049442074696D656F7574210D0A00736562
:1006D4006E736F722073656C6620636865636B214B
:1006E4000D0A0073656E736F72206973206F6B213E
:1006F4000D0A004E6F2073656E736F72210D0A0030
:100704007468657265206973206F62737461636CC9
:1007140065210D0A004E6F206F62737461636C650E
:0507240073210D0A0025
:07083900011F00021D000079
:1003E500E51F14602814605314605F14607914705D
:1003F5000302047A240560030204BE7FF47E011221
:100405000A3A1200168E1D8F1E751F012220B40890
:100415007BFF7A0679B4801C120016AD1EAC1D1246
:100425000A57C3EF9414EE940050030204BE7BFFF9
:100435007A0679BF12096E751F0222120A5F751FAF
:10044500037BFF7A0679D202096E120A7A406A1294
:100455000A777BFF50067A0679E780577A0679F79F
:1004650012096EE4F51F22120A5F1200168E1D8F07
:100475001E751F0522120A7A403F120A7D501B1273
:100485000016AD1EAC1D120A57C3EF9464EE94001E
:1004950040277BFF7A0779048019120016AD1EAC40
:1004A5001D120A57C3EF9490EE9401400C7BFF7A1E
:0A04B50007791912096E751F042261
:0208F1008F0B6B
:1008F300C2911209D1E4F50CE50B30E004D29180EA
:1009030002C2911209D1E50BC313F50B050CE50CDB
:0A091300C3940840E3D2910209D119
:10096E008B088A09890AAB08AA09A90A120598FFF9
:10097E0060101208F17401250AF50AE43509F5092B
:03098E0080E422E0
:03000000020628CD
:0C062800787FE4F6D8FD75812C02066F87
:10059800BB010689828A83E0225002E722BBFE0261
:0905A800E32289828A83E4932294
:1005B100BB010CE58229F582E5833AF583E02250FF
:1005C10006E92582F8E622BBFE06E92582F8E22249
:0D05D100E58229F582E5833AF583E4932263
:1005DE00EF8DF0A4A8F0CF8CF0A428CE8DF0A42E31
:0205EE00FE22EB
:1005F000BB0110E58229F582E5833AF583E0F5F049
:10060000A3E0225009E92582F886F008E622BBFE25
:100610000AE92582F8E2F5F008E222E5832AF5836B
:08062000E993F5F0A3E9932230
:10063400020946E493A3F8E493A34003F68001F28D
:1006440008DFF48029E493A3F85407240CC8C333C7
:10065400C4540F4420C8834004F456800146F6DF96
:10066400E4800B01020408102040809007F8E47E27
:10067400019360BCA3FF543F30E509541FFEE4938B
:10068400A360010ECF54C025E060A840B8E493A352
:10069400FAE493A3F8E493A3C8C582C8CAC583CA7D
:1006A400F0A3C8C582C8CAC583CADFE9DEE780BE35
:0108400000B7
:00000001FF
