:041086000250000014
:10120D007509FFE4F508FB7A0079087F0112056680
:10121D007509017508017B007A0079087F011205B7
:10122D00667509FFE4F508FB7A0079087F0312055E
:10123D00667509107508017B007A0079087F031225
:10124D0005667509207508037B007A0079087F0310
:05125D00120566C2B29B
:011262002269
:1012A500E4F508750901F50AF50BF50C750DFE75E4
:1012B5000ED4750F01FB7A007908FF120976E4F563
:1012C50008F509750A01F50BF50C750DE8750E9015
:0D12D500750F01FB7A0079087F0102097690
:10145900750801E4F509750A03FB7A007908021396
:011469001969
:1013C80012120D1212A5121459D2AF1207BA121125
:0913D80053120C2912149080F24A
:10056600EFD3940740037F0122120301FED39403C5
:1005760040037F0222EF7041EE700B9000011203E0
:100586001AF452935294120301B4010B9000011213
:10059600031A4293F45294120301FEB4020A900025
:1005A6000112031A42934294EEB4030D9000011215
:1005B600031AFEF45293EE4294EF64017043120361
:1005C60001FE700B90000112031AF452915292EE42
:1005D600B4010B90000112031A4291F452921203D5
:1005E60001B4020A90000112031A429142921203C8
:1005F60001B4030D90000112031AFEF45291EE426B
:1006060092EF64027043120301FE700B9000011218
:10061600031AF452955296EEB4010B9000011203A0
:100626001A4295F45296120301B4020A900001127E
:10063600031A42954296120301B4030D900001126B
:10064600031AFEF45295EE4296EF640370431203CA
:1006560001FE700B90000112031AF452B152B2EE71
:10066600B4010B90000112031A42B1F452B2120304
:1006760001B4020A90000112031A42B142B21203F7
:1006860001B4030D90000112031AFEF452B1EE42BA
:10069600B2EF64047043120301FE700B9000011266
:1006A600031AF452B352B4EEB4010B9000011203D4
:1006B6001A42B3F452B4120301B4020A90000112B2
:1006C600031A42B342B4120301B4030D900001129F
:1006D600031AFEF452B3EE42B4EF640570431203FC
:1006E60001FE700B90000112031AF452C952CAEEB1
:1006F600B4010B90000112031A42C9F452CA120344
:1007060001B4020A90000112031A42C942CA120336
:1007160001B4030D90000112031AFEF452C9EE4211
:10072600CAEF64067043120301FE700B90000112BB
:10073600031AF452CB52CCEEB4010B900001120313
:100746001A42CBF452CC120301B4020A90000112F1
:10075600031A42CB42CC120301B4030D90000112DE
:10076600031AFEF452CBEE42CCEF64077043120339
:1007760001FF700B90000112031AF452E152E2EFEE
:10078600B4010B90000112031A42E1F452E2120383
:1007960001B4020A90000112031A42E142E2120376
:1007A60001B4030D90000112031AFFF452E1EF4267
:0407B600E27F0022BC
:10131900120301B4010375C12090000212031A548B
:1013290007FFE5C154F84FF5C190000112031A7087
:091339000453C1F72243C108224C
:0414900043C1102222
:10108A00C109C108014000023C0000014100023AC6
:06109A000000023E000010
:10139000E541146009047014D2B675410122E5409C
:0D13A000D394184005C209C2A922B2B6229A
:0A146A00D209E4F540F541D2A922B1
:03149400A2092288
:05000E00AE3CAF3D22F5
:05001600AE3EAF3F22E9
:05148100AE3AAF3B2272
:08000300C3EF9DFFEE9CFE22FD
:03000B000213E1FC
:1013E100C0E0C0D0053DE53D7002053C3009050572
:0913F10040121390D0D0D0E0327C
:03001B000211B11E
:1011B100C0E0C0F0C083C082C0D075D000C000C004
:1011C10001C002C003C004C005C006C007053FE559
:1011D1003F7002053E200817D208053BE53B70022F
:1011E100053A1214975004B2B58006C2B58002C206
:1011F10008D007D006D005D004D003D002D001D04A
:0C12010000D0D0D082D083D0F0D0E032FA
:10097600AD07ED6003020A2FC28C90000212031A23
:10098600B40104D2A98002C2A990000112031AFE82
:10099600D3940340037F0222EE700553B7FDC2B91C
:1009A60090000112031AB4010553B7FDD2B99000A5
:1009B6000112031AFFB4020543B702C2B9EFB4032A
:1009C6000543B702D2B9120301FEC3940340037F65
:1009D6000222E58954CF4EF58990000312031AFFCF
:1009E600B40103538E7FEF7003438E80EFB402058C
:1009F60043890480035389FB90000412031AB4014F
:100A060005438F018003538FFE90000512039CE57A
:100A1600F0F58C90000512039CF58A9000071203EE
:100A26001AB40102D28C7F0022ED64016003020A2F
:100A3600E6C28E90000212031AB40104D2AB800201
:100A4600C2AB90000112031AFED3940340037F0247
:100A560022EE700553B7F7C2BB90000112031AB419
:100A6600010553B7F7D2BB90000112031AFFB40277
:100A76000543B708C2BBEFB4030543B708D2BB12A0
:100A86000301FEC3940340037F0222E58954CF4E3F
:100A9600F58990000312031AFFB40103538EBFEFCA
:100AA6007003438E40EFB4020543894080035389A7
:100AB600BF90000412031AB40105438F028003534A
:100AC6008FFD90000512039CFDACF0ECF58DAF0593
:100AD6008F8B90000712031AB40102D28E7F002278
:030AE6007F02226A
:0410A000C10AC10BB5
:03149700A20B2283
:10140E00E4F542EF25E0F545EE33F5448D43D20B7E
:03141E00D20A22CD
:05148600C20AC20B22A6
:10115300300A5AE5421460141460312402704ED2EE
:101163000B1214818E468F4775420122121481ADF2
:1011730047AC46120003C3EF9545EE9544402EC29B
:101183000BE543600302148675420222121481ADFB
:1011930047AC46120003AC06AD07E54525E0FFE585
:0E11A3004433FEC3ED9FEC9E4003E4F5422270
:0B10A400C10C011B00041C0000000038
:10142100750A01750801E4F509FB7A0079087F0165
:031431000210EEB8
:10143400121421D20CE4F51BF51FF51EF51DF51C45
:03144400D2A92208
:10144700C20CE4F51BF51FF51EF51DF51CC2AAC25B
:02145700A922C8
:03149A00A20C227F
:03001300020FAD2C
:100FAD00C0E0C0F0C083C082C0D075D000C000C00A
:100FBD0001C002C003C004C005C006C007300C321A
:100FCD0012000EAC1EAD1F120003D3EF9405EE946C
:100FDD00005010051BE51BC39403400AC20C1214EC
:100FED00478003751B0012000EE48F1F8E1EF51D2A
:100FFD00F51CD007D006D005D004D003D002D00107
:0D100D00D000D0D0D082D083D0F0D0E0321F
:1010EE00EF6401705DC28B90000212031AB401040A
:1010FE00D2AA8002C2AA90000112031AFED3940350
:10110E0040037F0222EE700553B7FBC2BA90000176
:10111E0012031AB4010553B7FBD2BA9000011203A1
:10112E001AFFB4020543B704C2BAEFB4030543B7BE
:10113E0004D2BA120301B40104D28A8002C28A7F99
:05114E0000227F0222D7
:1010AF00C101C102C103C100014800024900000291
:0310BF004B0000E3
:05148B00AE4BAF4C2246
:03149D00A2022286
:0314A000A2012284
:0314A300A203227F
:06147B00D201E4F5482255
:100C2900200103020D30E54814602314604F14704D
:100C390003020CC024036003020D301200168E4912
:100C49008F4A12146AE4F54BF54C754801221214C7
:100C5900945003020D302000071214347548022203
:100C6900120016AD4AAC49120003C3EF9406EE9484
:100C7900005003020D301214347548032212149ADD
:100C89004010D200D202E4FD7FF47E0112140EC29C
:100C99000122120016AD4AAC49120003C3EF94A019
:100CA900EE94005003020D30C202E4FD7FD07E07AE
:100CB90012140EC201806D12149A404B120016AD27
:100CC9004AAC49120003AC06AD07E4120151E4FB3A
:100CD900FA792A784212004612018A8E4B8F4CC348
:100CE900E54C94FAE54B94005007E4F54BF54C803C
:100CF90011D3E54C94F6E54B94094006754B0975FB
:100D09004CF6D203C20122120016AD4AAC491200B8
:100D190003C3EF94A0EE9400400DC203C201754BCA
:080D290000754CA012144722D2
:10101A0072656376204944210D0A00726563762061
:10102A0049442074696D656F7574210D0A007365F2
:10103A006E736F722073656C6620636865636B21DB
:10104A000D0A0073656E736F72206973206F6B21CE
:10105A000D0A004E6F2073656E736F72210D0A00C0
:10106A006F62737461636C65210D0A004E6F206FA5
:0C107A0062737461636C6573210D0A00E1
:1010C200C107C106C104C1050427000000000126B2
:1010D20000022C0000012500012400012B00022245
:0210E20000000C
:0314A600AF24224E
:1007BA00300703020975E526B40D004003020975E6
:1007CA009007D1F82828730207F8020805020823BF
:1007DA0002083F02088402089A0208D10208DC02D1
:1007EA000910020922020951020975020970D2B5DB
:1007FA001214818E2C8F2D75260122121481AD2D93
:10080A00AC2C120003C3EF9414EE940050030209B7
:10081A0075A2B4920475260222121481AD2DAC2C55
:10082A00120003C3EF9432EE94005003020975C21A
:10083A00B575260322121481AD2DAC2C120003C308
:10084A00EF9464EE94005003020975A2B492052055
:10085A00B412A205300401B34005E4F524801575ED
:10086A0024028010A205300401B3400575240180DA
:10087A0003752403752604021342E524B4030DE428
:10088A00FD7F021213AD75260502091A75260A2282
:10089A00121481AD2DAC2C120003C3EF9432EE94E6
:1008AA00005003020975120EBAEF6005752901801E
:1008BA000F0525752604E525C3940350030209751F
:1008CA00E4F52575260622E4FDFF1213AD75260709
:1008DA00803E121481AD2DAC2C120003C3EF94326A
:1008EA00EE94005003020975120EBAEF60057527DF
:1008FA0001800C0525752606E525C39403406CE4A2
:10090A00F52575260822E4FD7F011213AD75260927
:10091A001214818E2C8F2D22121481AD2DAC2C1223
:10092A000003C3EF9432EE94004040120EBAEF6017
:10093A0005752801800C0525752608E525C394034D
:10094A004029E4F525801B121481AD2DAC2C120030
:10095A0003C3EF9458EE940240028006120EBAEFD7
:0C096A00600975260C22E4F526D2072255
:100D3100200703020E2DE52B14602C14605714605C
:100D410063147003020DCE147003020DDC240560E0
:100D510003020E2DE4FD7F96FE12140E1214818EF5
:100D6100228F23752B012220B4087BFF7A10791A78
:100D7100801C121481AD23AC22120003C3EF941422
:100D8100EE94005003020E2D7BFF7A107925121488
:100D910074752B022212147B752B037BFF7A107959
:100DA100380214741214A05003020E2D12149D7BEC
:100DB100FF500C7A10794D121474752B04800A7A45
:100DC10010795D121474E4F52B7F02805C1214819A
:100DD1008E228F2312147B752B05221214A0404CF6
:100DE1001214A35023121481AD23AC22120003C3A9
:100DF100EF9464EE940040347BFF7A10796A121408
:100E010074752B047F038021121481AD23AC22124F
:100E11000003C3EF9490EE940140117BFF7A1079A7
:0D0E210076121474752B047F03120000225A
:0910E40001350004360000000093
:060AE9008B148A1589162A
:100AEF00EF64026003020C26752E02F52FF530F528
:100AFF0031F532F533F5347F2090002EE4F0A3DF8B
:100B0F00FC7F2090000EE4F0A3DFFCAB14AA15A924
:100B1F0016120301FF64C06008EF64406003020B0C
:100B2F00E890000A12031AFED3940340037F0222B7
:100B3F00EE700653B6FE53B5FE90000A12031AB4B8
:100B4F00010653B6FE43B50190000A12031AFFB413
:100B5F00020643B60153B5FEEFB4030643B6014395
:100B6F00B501120301B4C005439A808003539A7FE5
:100B7F009000021204D47F807E8D7D5B7C00120476
:100B8F00108F1A8E198D188C17E4FFFE7D01FCABA8
:100B9F001AAA19A918A817C31204B040037F02227A
:100BAF00C3E4951AF51AE49519F51974019518F51A
:100BBF0018E49517F517538EEF538EF7438E04AF46
:100BCF001AAE19AD18AC1778081204C18FD6851A52
:100BDF00D753AFFB438E1080037F0222AB14AA15AD
:100BEF00A91690000912031AB4010543AF0180033F
:100BFF0053AFFE90000712031AB40105439A1080F9
:100C0F0003539AEF90000B12031A5401FFE5BA54E5
:090C1F00FE4FF5BA7F00227F02AE
:010C280022A9
:03004300020F3E6B
:100F3E00C0E0C083C082C0D075D000C007E59A3033
:100F4E00E025539AFEE534701EE532C3942040032B
:100F5E00753200AF320532740E2FF582E43400F58F
:100F6E0083E59BF0753305E59A30E128539AFDE54C
:100F7E002F6530601C742E252FF582E43400F58326
:100F8E00E0F59B052FE52FC394204008752F0080B8
:0F0F9E0003753100D007D0D0D082D083D0E0329D
:10001E00742E2530F582E43400F583EFF00530E5DB
:10002E0030C394204003E4F530E53170067531019C
:04003E00439A0222BD
:071474008B4D8A4E894F22C7
:10134200750840750D00750CC2750B01750A0075A4
:101352000F01751101E4F512F513FB7A0079087F8C
:0613620002120AE9C2B20A
:011368002262
:1013FA00E4F532F533F534FE7F20FD7B017A00797E
:04140A000E020504C5
:10136900853235E53564046005E535B40516AF35D4
:101379007E00784E7C007D017B017A00790E120295
:07138900DBAF35227F0022DB
:0812E2008B098A0A890B8D0CAF
:1012EA00E4FE1213FAD2B200000000E4FEEEC39547
:1012FA000C5015AB09AA0AA90B8E8275830012033A
:0E130A001AFF12001E0E80E500000000C2B2A5
:0113180022B2
:02126300AE05D6
:10126500E4FDEE900000701174BBF0A3EEF0A3EF67
:10127500F0A374BFF07D04801E74BBF0A3EEF0A351
:10128500EFF012148B7C007D0A120347900003EFE8
:10129500F0A374BFF07D057B017A0079000212E2AC
:1013AD0090000074BBF0A3EDF0A3EFF0A374BFF0B9
:0B13BD007B017A0079007D030212E240
:100EBA00E4F5081214A6EF6403704190004FE07045
:100ECA0014A3E0FF70028066EFB401028060EF6451
:100EDA0002705E8059900050E0FF7006A3E0F5367C
:100EEA00804CEFB40108900051E0F5378040900043
:100EFA0050E06402703BA3E0F538803290004FE086
:100F0A0070171214A6AE07900050E0FF6E70229080
:100F1A00004FE0FD12126380151214A6AE0790006E
:100F2A0050E0FFB5060B90004FE0FD121263750802
:030F3A0001AF08FC
:010F3D002291
:10004600EC4D6011E8497017ED33EC3304600DE4B4
:10005600FCFFFEFD22E933E8330470F80201F612D4
:1000660001C158046009E4CC2481500628500902D5
:1000760002002840030201FDC0E0EB4A7044B9804B
:1000860006D0E0FB0201ECEF4E701CBD8008EBFFD2
:10009600EAFEE9FD80EBE98DF0A4FEE5F002012F12
:1000A600E9CDF9EAFEEBFFEF89F0A4FCE5F0CE8995
:1000B600F0A42EFFE435F0CD89F0A42DFEE435F052
:1000C6008067EF4E7005BD80D780C3EF8BF0A4AC80
:1000D600F0EE8BF0A42CFCE435F0F8EF8AF0A42CBB
:1000E600E5F038FCE433CB8DF0A42CFCE5F03BF8CE
:1000F600EE8AF0A42CFCE5F038F8E433CF89F0A4BE
:100106002CFCE5F038CF3400CE89F0A42FFFE5F0C3
:100116003EFEE433C98DF0A42EFEE5F039CD8AF01B
:10012600A42FFFE5F03EFEE43DFD33D0E0FB500793
:100136000BBB000F020200EC2CFCEF33FFEE33FE8C
:06014600ED33FD0201D8BB
:10014C0075F020800E75F010800575F0087D007E2E
:10015C00007F003392D530D5031204A2EC3340104B
:10016C00EF33FFEE33FEED33FDEC33FCD5F0ED2237
:0E017C00E5F0247EA2D513CC92E7CDCEFF2273
:10018A00EDD2E7CD33EC3392D524814006E4FFFE6D
:10019A00FDFC22FCE4CFCECDCC24E0501174FF80CC
:1001AA00EDC3CC13CCCD13CDCE13CECF13CF047069
:0701BA00F030D5DE0204A2C3
:1001C100E9D2E7C933E833F892D5EDD2E7CD33EC84
:0701D10033FC5002B2D522FD
:1001D800EC30E7100FBF000C0EBE00080DBD000488
:1001E8000BEB6014A2D5EB13FCED92E7FD2274FF34
:1001F800FCFDFEFF22E480F8A2D574FF13FC7D808D
:03020800E480EFA0
:03000000020E2EBF
:0C0E2E00787FE4F6D8FD758151020E7546
:10020B00E709F608DFFA8046E709F208DFFA803ED5
:10021B0088828C83E709F0A3DFFA8032E309F608C2
:10022B00DFFA8078E309F208DFFA807088828C832A
:10023B00E309F0A3DFFA806489828A83E0A3F608DE
:10024B00DFFA805889828A83E0A3F208DFFA804CB8
:10025B0080D280FA80C680D4806980F2803380108F
:10026B0080A680EA809A80A880DA80E280CA8033F8
:10027B0089828A83ECFAE493A3C8C582C8CCC58370
:10028B00CCF0A3C8C582C8CCC583CCDFE9DEE78040
:10029B000D89828A83E493A3F608DFF9ECFAA9F0BF
:1002AB00EDFB2289828A83ECFAE0A3C8C582C8CC15
:1002BB00C583CCF0A3C8C582C8CCC583CCDFEADE2E
:1002CB00E880DB89828A83E493A3F208DFF980CC90
:1002DB0088F0EF60010E4E60C388F0ED2402B40489
:1002EB000050B9F582EB2402B4040050AF23234530
:0602FB00822390025B73F8
:10030100BB010689828A83E0225002E722BBFE02FA
:09031100E32289828A83E493222D
:10031A00BB010CE58229F582E5833AF583E0225098
:10032A0006E92582F8E622BBFE06E92582F8E222E2
:0D033A00E58229F582E5833AF583E49322FC
:10034700BC000BBE0029EF8DF084FFADF022E4CC9A
:10035700F875F008EF2FFFEE33FEEC33FCEE9DEC63
:10036700984005FCEE9DFE0FD5F0E9E4CEFD22EDA9
:10037700F8F5F0EE8420D21CFEADF075F008EF2FF3
:10038700FFED33FD4007985006D5F0F222C398FDE4
:050397000FD5F0EA2281
:10039C00BB0110E58229F582E5833AF583E0F5F09F
:1003AC00A3E0225009E92582F886F008E622BBFE7C
:1003BC000AE92582F8E2F5F008E222E5832AF583C2
:0803CC00E993F5F0A3E9932287
:1003D40075F008758200EF2FFFEE33FECD33CDCCE0
:1003E40033CCC58233C5829BED9AEC99E582984063
:1003F4000CF582EE9BFEED9AFDEC99FC0FD5F0D640
:10040400E4CEFBE4CDFAE4CCF9A88222B800C1B969
:100414000059BA002DEC8BF084CFCECDFCE5F0CBA7
:10042400F97818EF2FFFEE33FEED33FDEC33FCEBE0
:1004340033FB10D703994004EB99FB0FD8E5E4F99B
:10044400FA227818EF2FFFEE33FEED33FDEC33FC88
:10045400C933C910D7059BE99A4007EC9BFCE99A7C
:10046400F90FD8E0E4C9FAE4CCFB2275F010EF2FC1
:10047400FFEE33FEED33FDCC33CCC833C810D707C1
:100484009BEC9AE899400AED9BFDEC9AFCE899F8FC
:0E0494000FD5F0DAE4CDFBE4CCFAE4C8F9228F
:0E04A200C3E49FFFE49EFEE49DFDE49CFC226B
:1004B000EB9FF5F0EA9E42F0E99D42F0E89C45F0A2
:0104C0002219
:1004C100E8600FECC313FCED13FDEE13FEEF13FF19
:0304D100D8F1223D
:1004D400BB010DE58229F582E5833AF58302053DEA
:1004E4005007E92582F8020530BBFE07E92582F8AA
:1004F400020549E58229F582E5833AF5830205562A
:10050400EF4E6012EF60010EEDBB010B89828A830E
:10051400F0A3DFFCDEFA2289F05007F709DFFCA91B
:0C052400F022BBFEFCF309DFFCA9F02272
:100E3A000213C8E493A3F8E493A34003F68001F2F3
:100E4A0008DFF48029E493A3F85407240CC8C333B9
:100E5A00C4540F4420C8834004F456800146F6DF88
:100E6A00E4800B0102040810204080901086E47E82
:100E7A00019360BCA3FF543F30E509541FFEE4937D
:100E8A00A360010ECF54C025E060A840B8E493A344
:100E9A00FAE493A3F8E493A3C8C582C8CAC583CA6F
:100EAA00F0A3C8C582C8CAC583CADFE9DEE780BE27
:0110ED000002
:0D053000E6FB08E6F908E6FA08E6CBF8223B
:0C053D00E0F8A3E0F9A3E0FAA3E0FB2241
:0D054900E2FB08E2F908E2FA08E2CBF82232
:10055600E493F8740193F9740293FA740393FB22FB
:00000001FF
