:040872000239000047
:100A1E0012000E8E398F3A12000EAD3AAC39120A10
:0B0A2E009DD3EF9410EE940040ED22E9
:100A5D0053544338205541525432204F4B210D0AE7
:010A6D000088
:1009C0007517FFE4F516FB7A0079167F0112001601
:1009D0007517FFE4F516FB7A0079167F03020016FF
:100A0000E4F516F517751801F519F51A751BFE753D
:0E0A10001CDC751D01FB7A007916FF02053310
:100A3900751801751601E4F517FB7A0079167F011F
:030A49000207C4DD
:100A4C00751601E4F517751803FB7A00791602097F
:010A5C004950
:100972001209C0120A00120A4C120A39D2AF7BFFC6
:100982007A0A795DE4FF12099912026A12091D12AC
:070992000451120AB580F2C6
:10001600EFD3940740037F012212036CFED39403AF
:1000260040037F0222EF7041EE700B900001120335
:1000360085F45293529412036CB4010B9000011292
:1000460003854293F4529412036CFEB4020A9000A4
:100056000112038542934294EEB4030D90000112FF
:100066000385FEF45293EE4294EF6401704312034B
:100076006CFE700B900001120385F452915292EEC1
:10008600B4010B9000011203854291F452921203BF
:100096006CB4020A90000112038542914292120347
:1000A6006CB4030D900001120385FEF45291EE42EA
:1000B60092EF6402704312036CFE700B9000011203
:1000C6000385F452955296EEB4010B90000112038B
:1000D600854295F4529612036CB4020A90000112FE
:1000E60003854295429612036CB4030D90000112EB
:1000F6000385FEF45295EE4296EF640370431203B5
:100106006CFE700B900001120385F452B152B2EEF0
:10011600B4010B90000112038542B1F452B21203EE
:100126006CB4020A90000112038542B142B2120376
:100136006CB4030D900001120385FEF452B1EE4239
:10014600B2EF6404704312036CFE700B9000011250
:100156000385F452B352B4EEB4010B9000011203BE
:100166008542B3F452B412036CB4020A9000011231
:10017600038542B342B412036CB4030D900001121E
:100186000385FEF452B3EE42B4EF640570431203E6
:100196006CFE700B900001120385F452C952CAEE30
:1001A600B4010B90000112038542C9F452CA12032E
:1001B6006CB4020A90000112038542C942CA1203B6
:1001C6006CB4030D900001120385FEF452C9EE4291
:1001D600CAEF6406704312036CFE700B90000112A6
:1001E6000385F452CB52CCEEB4010B9000011203FE
:1001F6008542CBF452CC12036CB4020A9000011271
:10020600038542CB42CC12036CB4030D900001125D
:100216000385FEF452CBEE42CCEF64077043120323
:100226006CFF700B900001120385F452E152E2EF6D
:10023600B4010B90000112038542E1F452E212036D
:100246006CB4020A90000112038542E142E21203F5
:100256006CB4030D900001120385FFF452E1EF42E6
:04026600E27F002211
:1009490012036CB4010375C120900002120385548F
:1009590007FFE5C154F84FF5C190000112038570F6
:090969000453C1F72243C1082226
:040AB50043C1102207
:10087600C104012500022300000126000221000018
:1009E000E526146009047017D2B675260122E525A4
:1009F000D394184008E4F525C204F52622B2B622A5
:03000B000206ECFE
:1006EC00C0E0C0F0C083C082C0D075D000C000C0D4
:1006FC0001C002C003C004C005C006C007C2A905E2
:10070C0024E5247002052330040505251209E0AE0A
:10071C0023AF247C007D281203C4ED4C70130522FA
:10072C00E52270020521120ABC5004B2B58002C247
:10073C00B5D2A9D007D006D005D004D003D002D0B2
:0E074C0001D000D0D0D082D083D0F0D0E032E7
:08000300D204E4F525F52622E4
:030AB900A2042272
:05000E00AE23AF242227
:050AAB00AE21AF222284
:080A9D00C3EF9DFFEE9CFE2259
:10053300EF60030205E8C28C900002120385B40148
:1005430004D2A98002C2A9900001120385FED394AC
:100553000340037F0222EE700553B7FDC2B990003A
:1005630001120385B4010553B7FDD2B990000112FE
:100573000385FFB4020543B702C2B9EFB4030543D1
:10058300B702D2B912036CFEC3940340037F022265
:10059300E58954CF4EF589900003120385FFB4011A
:1005A30003538E7FEF7003438E80EFB402054389BC
:1005B3000480035389FB900004120385B4010543AF
:1005C3008F018003538FFE900005120419FDACF0D8
:1005D300ECF58CAF058F8A900007120385B40102F6
:0805E300D28C7F00227F02226E
:0D088600C105012B0002290000022700001F
:030ABC00A205226E
:0F0A6E00E4F52BEF25E0F52AEE33F529D205222A
:10091D00300528E52B14600E047020120AAB8E27CB
:10092D008F28752B0122120AABAD28AC27120A9D18
:0C093D00C3EF952AEE95294002C2052266
:0B089300C106012C00042D0000000035
:0E0A7D00D206E4F52CF530F52FF52EF52D22DE
:030ABF00A206226A
:0300130002075A87
:10075A00C0E0C0F0C083C082C0D075D000C000C065
:10076A0001C002C003C004C005C006C00730062F7E
:10077A0012000EAC2FAD30120A9DD3EF9404EE9402
:10078A0000500D052CE52CC394034007C2068003D4
:10079A00752C0012000EE48F308E2FF52EF52DD019
:1007AA0007D006D005D004D003D002D001D000D0A3
:0A07BA00D0D082D083D0F0D0E0321E
:1007C400EF6401705DC28B900002120385B40104D2
:1007D400D2AA8002C2AA900001120385FED3940318
:1007E40040037F0222EE700553B7FBC2BA900001AA
:1007F400120385B4010553B7FBD2BA90000112036A
:1008040085FFB4020543B704C2BAEFB4030543B786
:1008140004D2BA12036CB40104D28A8002C28A7F61
:0508240000227F02220A
:10089E00C101C102C103C1000131000232000002D8
:0308AE0034000013
:050AB000AE34AF352259
:030AC200A202226B
:030AC500A2012269
:030AC800A2032264
:060AA500D201E4F531224C
:10045100200103020532E531146014146047146071
:100461007724036003020532120003753101221261
:100471000AB9500302053212000E8E328F3320006A
:1004810007120A7D7531022212000EAD33AC321211
:100491000A9DC3EF9460EE94005003020532120AE4
:1004A1007D75310322120ABF400AD200D2027FF4C5
:1004B1007E01801E12000EAD33AC32120A9DC3EFD5
:1004C1009450EE9400406AC202E4F534F5357FD0D1
:1004D1007E07120A6EC20122120ABF403D12000EAF
:1004E100AD33AC32120A9D7C357D201203B28E34BD
:1004F1008F35C3E53594FAE53494005007E4F534BB
:10050100F5358011D3E53594F6E534940940067547
:1005110034097535F6D203C20122120AABAD33ACF0
:1005210032120A9DC3EF94A0EE940F4004C203C29D
:020531000122A5
:1006770072656376204944210D0A0072656376200E
:1006870049442074696D656F7574210D0A0073659F
:100697006E736F722073656C6620636865636B2188
:1006A7000D0A0073656E736F72206973206F6B217B
:1006B7000D0A004E6F2073656E736F72210D0A006D
:1006C7007468657265206973206F62737461636C07
:1006D70065210D0A004E6F206F62737461636C654C
:0506E70073210D0A0063
:0708B10001380002360000CF
:10026A00E53814602B146058146066147003020396
:10027A00081470030203162405600302036B7FF45B
:10028A007E01120A6E120AAB8E368F37753801223A
:10029A0020B4087BFF7A067977801C120AABAD3747
:1002AA00AC36120A9DC3EF9414EE94005003020375
:1002BA006B7BFF7A067982E4FF120999753802226C
:1002CA00120AA57538037BFF7A067995E4FF0209BD
:1002DA0099120AC5500302036B120AC27BFF500E21
:1002EA007A0679AAE4FF120999753804800C7A060D
:1002FA0079BAE4FF120999E4F5387F018060120A9D
:10030A00A5120AAB8E368F3775380522120AC540F8
:10031A0050120AC85025120AABAD37AC36120A9DE4
:10032A00C3EF9464EE940040387BFF7A0679C7E401
:10033A00FF1209997538047F028023120AABAD3780
:10034A00AC36120A9DC3EF9490EE940140137BFFE2
:10035A007A0679DCE4FF1209997538047F021208DB
:02036A00292246
:090A8B00EF7003C29022C2912217
:090A9400EF7003D29022D29122EE
:0408B9008F1C8D1DE6
:1008BD00120A8B120A1EE4F51EE51DAF1C30E00571
:1008CD00120A948003120A8B120A1EE51DC313F53A
:1008DD001D051EE51EC3940840DFAF1C120A9402CD
:0208ED000A1EE1
:100999008F168B178A188919AB17AA18A919120368
:1009A9006CFD6012AF161208B974012519F519E426
:0709B9003518F51880E22259
:0808EF008B178A1889198D1A74
:1008F700E4F51BF51BE51BC3951A5019AB17AA188E
:10090700A919851B82758300120385FD7F011208D3
:05091700B9051B80E0A2
:01091C0022B8
:100829008F16E51670047508AA22E516B401177526
:1008390008BB120AC2E433F509750ABF7B007A00C6
:1008490079087D03801FE516B4021D7508CC120ACC
:10085900B07C007D0A1203C48F147515CF7B007A12
:090869000079087D0E1208EF224F
:030000000205EB0B
:0C05EB00787FE4F6D8FD75813A020632F4
:10036C00BB010689828A83E0225002E722BBFE028F
:09037C00E32289828A83E49322C2
:10038500BB010CE58229F582E5833AF583E022502D
:1003950006E92582F8E622BBFE06E92582F8E22277
:0D03A500E58229F582E5833AF583E4932291
:1003B200EF8DF0A4A8F0CF8CF0A428CE8DF0A42E5F
:0203C200FE2219
:1003C400BC000BBE0029EF8DF084FFADF022E4CC1D
:1003D400F875F008EF2FFFEE33FEEC33FCEE9DECE6
:1003E400984005FCEE9DFE0FD5F0E9E4CEFD22ED2C
:1003F400F8F5F0EE8420D21CFEADF075F008EF2F76
:10040400FFED33FD4007985006D5F0F222C398FD66
:050414000FD5F0EA2203
:10041900BB0110E58229F582E5833AF583E0F5F021
:10042900A3E0225009E92582F886F008E622BBFEFE
:100439000AE92582F8E2F5F008E222E5832AF58344
:08044900E993F5F0A3E9932209
:1005F700020972E493A3F8E493A34003F68001F29F
:1006070008DFF48029E493A3F85407240CC8C33304
:10061700C4540F4420C8834004F456800146F6DFD3
:10062700E4800B0102040810204080900872E47EE9
:10063700019360BCA3FF543F30E509541FFEE493C8
:10064700A360010ECF54C025E060A840B8E493A38F
:10065700FAE493A3F8E493A3C8C582C8CAC583CABA
:10066700F0A3C8C582C8CAC583CADFE9DEE780BE72
:0108B800003F
:00000001FF
